{
	"contracts/stakingETH.sol": {
		"stakingEth": {
			"abi": [
				{
					"inputs": [
						{
							"internalType": "uint8",
							"name": "_fixedAPY",
							"type": "uint8"
						},
						{
							"internalType": "uint256",
							"name": "_durationInDays",
							"type": "uint256"
						},
						{
							"internalType": "uint256",
							"name": "_maxAmountStaked",
							"type": "uint256"
						}
					],
					"stateMutability": "nonpayable",
					"type": "constructor"
				},
				{
					"anonymous": false,
					"inputs": [
						{
							"indexed": true,
							"internalType": "address",
							"name": "withdrawer",
							"type": "address"
						},
						{
							"indexed": false,
							"internalType": "uint256",
							"name": "_amount",
							"type": "uint256"
						}
					],
					"name": "EmergencyWithdraw",
					"type": "event"
				},
				{
					"anonymous": false,
					"inputs": [
						{
							"indexed": true,
							"internalType": "address",
							"name": "staker",
							"type": "address"
						},
						{
							"indexed": false,
							"internalType": "uint256",
							"name": "_amount",
							"type": "uint256"
						},
						{
							"indexed": false,
							"internalType": "uint256",
							"name": "durationinDays",
							"type": "uint256"
						}
					],
					"name": "Stakeaddress",
					"type": "event"
				},
				{
					"anonymous": false,
					"inputs": [
						{
							"indexed": true,
							"internalType": "address",
							"name": "withdrawer",
							"type": "address"
						},
						{
							"indexed": false,
							"internalType": "uint256",
							"name": "_amount",
							"type": "uint256"
						}
					],
					"name": "WithdrawAll",
					"type": "event"
				},
				{
					"inputs": [
						{
							"internalType": "uint256",
							"name": "_amount",
							"type": "uint256"
						}
					],
					"name": "emergencyWithdraw",
					"outputs": [],
					"stateMutability": "nonpayable",
					"type": "function"
				},
				{
					"inputs": [],
					"name": "fixedAPY",
					"outputs": [
						{
							"internalType": "uint8",
							"name": "",
							"type": "uint8"
						}
					],
					"stateMutability": "view",
					"type": "function"
				},
				{
					"inputs": [
						{
							"internalType": "address",
							"name": "_user",
							"type": "address"
						}
					],
					"name": "getAmountStakebyUser",
					"outputs": [
						{
							"internalType": "uint256",
							"name": "",
							"type": "uint256"
						}
					],
					"stateMutability": "view",
					"type": "function"
				},
				{
					"inputs": [],
					"name": "getMyStakedAmount",
					"outputs": [
						{
							"internalType": "uint256",
							"name": "",
							"type": "uint256"
						}
					],
					"stateMutability": "view",
					"type": "function"
				},
				{
					"inputs": [
						{
							"internalType": "uint256",
							"name": "_days",
							"type": "uint256"
						}
					],
					"name": "stake",
					"outputs": [],
					"stateMutability": "payable",
					"type": "function"
				},
				{
					"inputs": [],
					"name": "totalAmountStaked",
					"outputs": [
						{
							"internalType": "uint256",
							"name": "",
							"type": "uint256"
						}
					],
					"stateMutability": "view",
					"type": "function"
				},
				{
					"inputs": [],
					"name": "withdraw",
					"outputs": [],
					"stateMutability": "nonpayable",
					"type": "function"
				}
			],
			"devdoc": {
				"kind": "dev",
				"methods": {},
				"version": 1
			},
			"evm": {
				"assembly": "    /* \"contracts/stakingETH.sol\":57:3579  contract stakingEth {... */\n  mstore(0x40, 0xa0)\n    /* \"contracts/stakingETH.sol\":880:1167  constructor(... */\n  callvalue\n  dup1\n  iszero\n  tag_1\n  jumpi\n  0x00\n  dup1\n  revert\ntag_1:\n  pop\n  mload(0x40)\n  sub(codesize, bytecodeSize)\n  dup1\n  bytecodeSize\n  dup4\n  codecopy\n  dup2\n  dup2\n  add\n  0x40\n  mstore\n  dup2\n  add\n  swap1\n  tag_2\n  swap2\n  swap1\n  tag_3\n  jump\t// in\ntag_2:\n    /* \"contracts/stakingETH.sol\":1034:1044  msg.sender */\n  caller\n    /* \"contracts/stakingETH.sol\":1026:1044  owner = msg.sender */\n  0xffffffffffffffffffffffffffffffffffffffff\n  and\n  0x80\n  dup2\n  0xffffffffffffffffffffffffffffffffffffffff\n  and\n  dup2\n  mstore\n  pop\n  pop\n    /* \"contracts/stakingETH.sol\":1065:1074  _fixedAPY */\n  dup3\n    /* \"contracts/stakingETH.sol\":1054:1062  fixedAPY */\n  0x02\n  0x00\n    /* \"contracts/stakingETH.sol\":1054:1074  fixedAPY = _fixedAPY */\n  0x0100\n  exp\n  dup2\n  sload\n  dup2\n  0xff\n  mul\n  not\n  and\n  swap1\n  dup4\n  0xff\n  and\n  mul\n  or\n  swap1\n  sstore\n  pop\n    /* \"contracts/stakingETH.sol\":1101:1116  _durationInDays */\n  dup2\n    /* \"contracts/stakingETH.sol\":1084:1098  durationInDays */\n  0x03\n    /* \"contracts/stakingETH.sol\":1084:1116  durationInDays = _durationInDays */\n  dup2\n  swap1\n  sstore\n  pop\n    /* \"contracts/stakingETH.sol\":1143:1159  _maxAmountStaked */\n  dup1\n    /* \"contracts/stakingETH.sol\":1126:1141  maxAmountStaked */\n  0x04\n    /* \"contracts/stakingETH.sol\":1126:1159  maxAmountStaked =_maxAmountStaked */\n  dup2\n  swap1\n  sstore\n  pop\n    /* \"contracts/stakingETH.sol\":880:1167  constructor(... */\n  pop\n  pop\n  pop\n    /* \"contracts/stakingETH.sol\":57:3579  contract stakingEth {... */\n  jump(tag_6)\n    /* \"#utility.yul\":88:205   */\ntag_8:\n    /* \"#utility.yul\":197:198   */\n  0x00\n    /* \"#utility.yul\":194:195   */\n  dup1\n    /* \"#utility.yul\":187:199   */\n  revert\n    /* \"#utility.yul\":334:420   */\ntag_10:\n    /* \"#utility.yul\":369:376   */\n  0x00\n    /* \"#utility.yul\":409:413   */\n  0xff\n    /* \"#utility.yul\":402:407   */\n  dup3\n    /* \"#utility.yul\":398:414   */\n  and\n    /* \"#utility.yul\":387:414   */\n  swap1\n  pop\n    /* \"#utility.yul\":334:420   */\n  swap2\n  swap1\n  pop\n  jump\t// out\n    /* \"#utility.yul\":426:544   */\ntag_11:\n    /* \"#utility.yul\":497:519   */\n  tag_22\n    /* \"#utility.yul\":513:518   */\n  dup2\n    /* \"#utility.yul\":497:519   */\n  tag_10\n  jump\t// in\ntag_22:\n    /* \"#utility.yul\":490:495   */\n  dup2\n    /* \"#utility.yul\":487:520   */\n  eq\n    /* \"#utility.yul\":477:538   */\n  tag_23\n  jumpi\n    /* \"#utility.yul\":534:535   */\n  0x00\n    /* \"#utility.yul\":531:532   */\n  dup1\n    /* \"#utility.yul\":524:536   */\n  revert\n    /* \"#utility.yul\":477:538   */\ntag_23:\n    /* \"#utility.yul\":426:544   */\n  pop\n  jump\t// out\n    /* \"#utility.yul\":550:689   */\ntag_12:\n    /* \"#utility.yul\":605:610   */\n  0x00\n    /* \"#utility.yul\":636:642   */\n  dup2\n    /* \"#utility.yul\":630:643   */\n  mload\n    /* \"#utility.yul\":621:643   */\n  swap1\n  pop\n    /* \"#utility.yul\":652:683   */\n  tag_25\n    /* \"#utility.yul\":677:682   */\n  dup2\n    /* \"#utility.yul\":652:683   */\n  tag_11\n  jump\t// in\ntag_25:\n    /* \"#utility.yul\":550:689   */\n  swap3\n  swap2\n  pop\n  pop\n  jump\t// out\n    /* \"#utility.yul\":695:772   */\ntag_13:\n    /* \"#utility.yul\":732:739   */\n  0x00\n    /* \"#utility.yul\":761:766   */\n  dup2\n    /* \"#utility.yul\":750:766   */\n  swap1\n  pop\n    /* \"#utility.yul\":695:772   */\n  swap2\n  swap1\n  pop\n  jump\t// out\n    /* \"#utility.yul\":778:900   */\ntag_14:\n    /* \"#utility.yul\":851:875   */\n  tag_28\n    /* \"#utility.yul\":869:874   */\n  dup2\n    /* \"#utility.yul\":851:875   */\n  tag_13\n  jump\t// in\ntag_28:\n    /* \"#utility.yul\":844:849   */\n  dup2\n    /* \"#utility.yul\":841:876   */\n  eq\n    /* \"#utility.yul\":831:894   */\n  tag_29\n  jumpi\n    /* \"#utility.yul\":890:891   */\n  0x00\n    /* \"#utility.yul\":887:888   */\n  dup1\n    /* \"#utility.yul\":880:892   */\n  revert\n    /* \"#utility.yul\":831:894   */\ntag_29:\n    /* \"#utility.yul\":778:900   */\n  pop\n  jump\t// out\n    /* \"#utility.yul\":906:1049   */\ntag_15:\n    /* \"#utility.yul\":963:968   */\n  0x00\n    /* \"#utility.yul\":994:1000   */\n  dup2\n    /* \"#utility.yul\":988:1001   */\n  mload\n    /* \"#utility.yul\":979:1001   */\n  swap1\n  pop\n    /* \"#utility.yul\":1010:1043   */\n  tag_31\n    /* \"#utility.yul\":1037:1042   */\n  dup2\n    /* \"#utility.yul\":1010:1043   */\n  tag_14\n  jump\t// in\ntag_31:\n    /* \"#utility.yul\":906:1049   */\n  swap3\n  swap2\n  pop\n  pop\n  jump\t// out\n    /* \"#utility.yul\":1055:1714   */\ntag_3:\n    /* \"#utility.yul\":1141:1147   */\n  0x00\n    /* \"#utility.yul\":1149:1155   */\n  dup1\n    /* \"#utility.yul\":1157:1163   */\n  0x00\n    /* \"#utility.yul\":1206:1208   */\n  0x60\n    /* \"#utility.yul\":1194:1203   */\n  dup5\n    /* \"#utility.yul\":1185:1192   */\n  dup7\n    /* \"#utility.yul\":1181:1204   */\n  sub\n    /* \"#utility.yul\":1177:1209   */\n  slt\n    /* \"#utility.yul\":1174:1293   */\n  iszero\n  tag_33\n  jumpi\n    /* \"#utility.yul\":1212:1291   */\n  tag_34\n  tag_8\n  jump\t// in\ntag_34:\n    /* \"#utility.yul\":1174:1293   */\ntag_33:\n    /* \"#utility.yul\":1332:1333   */\n  0x00\n    /* \"#utility.yul\":1357:1419   */\n  tag_35\n    /* \"#utility.yul\":1411:1418   */\n  dup7\n    /* \"#utility.yul\":1402:1408   */\n  dup3\n    /* \"#utility.yul\":1391:1400   */\n  dup8\n    /* \"#utility.yul\":1387:1409   */\n  add\n    /* \"#utility.yul\":1357:1419   */\n  tag_12\n  jump\t// in\ntag_35:\n    /* \"#utility.yul\":1347:1419   */\n  swap4\n  pop\n    /* \"#utility.yul\":1303:1429   */\n  pop\n    /* \"#utility.yul\":1468:1470   */\n  0x20\n    /* \"#utility.yul\":1494:1558   */\n  tag_36\n    /* \"#utility.yul\":1550:1557   */\n  dup7\n    /* \"#utility.yul\":1541:1547   */\n  dup3\n    /* \"#utility.yul\":1530:1539   */\n  dup8\n    /* \"#utility.yul\":1526:1548   */\n  add\n    /* \"#utility.yul\":1494:1558   */\n  tag_15\n  jump\t// in\ntag_36:\n    /* \"#utility.yul\":1484:1558   */\n  swap3\n  pop\n    /* \"#utility.yul\":1439:1568   */\n  pop\n    /* \"#utility.yul\":1607:1609   */\n  0x40\n    /* \"#utility.yul\":1633:1697   */\n  tag_37\n    /* \"#utility.yul\":1689:1696   */\n  dup7\n    /* \"#utility.yul\":1680:1686   */\n  dup3\n    /* \"#utility.yul\":1669:1678   */\n  dup8\n    /* \"#utility.yul\":1665:1687   */\n  add\n    /* \"#utility.yul\":1633:1697   */\n  tag_15\n  jump\t// in\ntag_37:\n    /* \"#utility.yul\":1623:1697   */\n  swap2\n  pop\n    /* \"#utility.yul\":1578:1707   */\n  pop\n    /* \"#utility.yul\":1055:1714   */\n  swap3\n  pop\n  swap3\n  pop\n  swap3\n  jump\t// out\n    /* \"contracts/stakingETH.sol\":57:3579  contract stakingEth {... */\ntag_6:\n  mload(0x80)\n  codecopy(0x00, dataOffset(sub_0), dataSize(sub_0))\n  0x00\n  assignImmutable(\"0x6bcaf047ba4c8ac400fca43393035242dd1aabda2d6068a0c51242b97224de8d\")\n  return(0x00, dataSize(sub_0))\nstop\n\nsub_0: assembly {\n        /* \"contracts/stakingETH.sol\":57:3579  contract stakingEth {... */\n      mstore(0x40, 0x80)\n      jumpi(tag_1, lt(calldatasize, 0x04))\n      shr(0xe0, calldataload(0x00))\n      dup1\n      0x6b11ae11\n      gt\n      tag_9\n      jumpi\n      dup1\n      0x6b11ae11\n      eq\n      tag_5\n      jumpi\n      dup1\n      0xa694fc3a\n      eq\n      tag_6\n      jumpi\n      dup1\n      0xcd11f639\n      eq\n      tag_7\n      jumpi\n      dup1\n      0xfe961f61\n      eq\n      tag_8\n      jumpi\n      jump(tag_1)\n    tag_9:\n      dup1\n      0x3ccfd60b\n      eq\n      tag_2\n      jumpi\n      dup1\n      0x48c9eaaf\n      eq\n      tag_3\n      jumpi\n      dup1\n      0x5312ea8e\n      eq\n      tag_4\n      jumpi\n    tag_1:\n      0x00\n      dup1\n      revert\n        /* \"contracts/stakingETH.sol\":2621:3407  function withdraw() external {... */\n    tag_2:\n      callvalue\n      dup1\n      iszero\n      tag_10\n      jumpi\n      0x00\n      dup1\n      revert\n    tag_10:\n      pop\n      tag_11\n      tag_12\n      jump\t// in\n    tag_11:\n      stop\n        /* \"contracts/stakingETH.sol\":661:682  uint8 public fixedAPY */\n    tag_3:\n      callvalue\n      dup1\n      iszero\n      tag_13\n      jumpi\n      0x00\n      dup1\n      revert\n    tag_13:\n      pop\n      tag_14\n      tag_15\n      jump\t// in\n    tag_14:\n      mload(0x40)\n      tag_16\n      swap2\n      swap1\n      tag_17\n      jump\t// in\n    tag_16:\n      mload(0x40)\n      dup1\n      swap2\n      sub\n      swap1\n      return\n        /* \"contracts/stakingETH.sol\":1892:2615  function emergencyWithdraw(uint256 _amount) external {... */\n    tag_4:\n      callvalue\n      dup1\n      iszero\n      tag_18\n      jumpi\n      0x00\n      dup1\n      revert\n    tag_18:\n      pop\n      tag_19\n      0x04\n      dup1\n      calldatasize\n      sub\n      dup2\n      add\n      swap1\n      tag_20\n      swap2\n      swap1\n      tag_21\n      jump\t// in\n    tag_20:\n      tag_22\n      jump\t// in\n    tag_19:\n      stop\n        /* \"contracts/stakingETH.sol\":1334:1450  function getMyStakedAmount() external view returns (uint256) {... */\n    tag_5:\n      callvalue\n      dup1\n      iszero\n      tag_23\n      jumpi\n      0x00\n      dup1\n      revert\n    tag_23:\n      pop\n      tag_24\n      tag_25\n      jump\t// in\n    tag_24:\n      mload(0x40)\n      tag_26\n      swap2\n      swap1\n      tag_27\n      jump\t// in\n    tag_26:\n      mload(0x40)\n      dup1\n      swap2\n      sub\n      swap1\n      return\n        /* \"contracts/stakingETH.sol\":1456:1830  function stake(uint256 _days) external  payable  {... */\n    tag_6:\n      tag_28\n      0x04\n      dup1\n      calldatasize\n      sub\n      dup2\n      add\n      swap1\n      tag_29\n      swap2\n      swap1\n      tag_21\n      jump\t// in\n    tag_29:\n      tag_30\n      jump\t// in\n    tag_28:\n      stop\n        /* \"contracts/stakingETH.sol\":1173:1328  function getAmountStakebyUser(address _user)... */\n    tag_7:\n      callvalue\n      dup1\n      iszero\n      tag_31\n      jumpi\n      0x00\n      dup1\n      revert\n    tag_31:\n      pop\n      tag_32\n      0x04\n      dup1\n      calldatasize\n      sub\n      dup2\n      add\n      swap1\n      tag_33\n      swap2\n      swap1\n      tag_34\n      jump\t// in\n    tag_33:\n      tag_35\n      jump\t// in\n    tag_32:\n      mload(0x40)\n      tag_36\n      swap2\n      swap1\n      tag_27\n      jump\t// in\n    tag_36:\n      mload(0x40)\n      dup1\n      swap2\n      sub\n      swap1\n      return\n        /* \"contracts/stakingETH.sol\":615:647  uint256 public totalAmountStaked */\n    tag_8:\n      callvalue\n      dup1\n      iszero\n      tag_37\n      jumpi\n      0x00\n      dup1\n      revert\n    tag_37:\n      pop\n      tag_38\n      tag_39\n      jump\t// in\n    tag_38:\n      mload(0x40)\n      tag_40\n      swap2\n      swap1\n      tag_27\n      jump\t// in\n    tag_40:\n      mload(0x40)\n      dup1\n      swap2\n      sub\n      swap1\n      return\n        /* \"contracts/stakingETH.sol\":2621:3407  function withdraw() external {... */\n    tag_12:\n        /* \"contracts/stakingETH.sol\":2690:2691  0 */\n      0x00\n        /* \"contracts/stakingETH.sol\":2668:2692  msg.sender != address(0) */\n      0xffffffffffffffffffffffffffffffffffffffff\n      and\n        /* \"contracts/stakingETH.sol\":2668:2678  msg.sender */\n      caller\n        /* \"contracts/stakingETH.sol\":2668:2692  msg.sender != address(0) */\n      0xffffffffffffffffffffffffffffffffffffffff\n      and\n      sub\n        /* \"contracts/stakingETH.sol\":2660:2718  require(msg.sender != address(0), \"zero address detected\") */\n      tag_42\n      jumpi\n      mload(0x40)\n      0x08c379a000000000000000000000000000000000000000000000000000000000\n      dup2\n      mstore\n      0x04\n      add\n      tag_43\n      swap1\n      tag_44\n      jump\t// in\n    tag_43:\n      mload(0x40)\n      dup1\n      swap2\n      sub\n      swap1\n      revert\n    tag_42:\n        /* \"contracts/stakingETH.sol\":2797:2803  stakes */\n      0x00\n        /* \"contracts/stakingETH.sol\":2797:2815  stakes[msg.sender] */\n      dup1\n        /* \"contracts/stakingETH.sol\":2804:2814  msg.sender */\n      caller\n        /* \"contracts/stakingETH.sol\":2797:2815  stakes[msg.sender] */\n      0xffffffffffffffffffffffffffffffffffffffff\n      and\n      0xffffffffffffffffffffffffffffffffffffffff\n      and\n      dup2\n      mstore\n      0x20\n      add\n      swap1\n      dup2\n      mstore\n      0x20\n      add\n      0x00\n      keccak256\n        /* \"contracts/stakingETH.sol\":2797:2823  stakes[msg.sender].isvalid */\n      0x03\n      add\n      0x00\n      swap1\n      sload\n      swap1\n      0x0100\n      exp\n      swap1\n      div\n      0xff\n      and\n        /* \"contracts/stakingETH.sol\":2789:2848  require(stakes[msg.sender].isvalid, \"user cannot withdraw\") */\n      tag_45\n      jumpi\n      mload(0x40)\n      0x08c379a000000000000000000000000000000000000000000000000000000000\n      dup2\n      mstore\n      0x04\n      add\n      tag_46\n      swap1\n      tag_47\n      jump\t// in\n    tag_46:\n      mload(0x40)\n      dup1\n      swap2\n      sub\n      swap1\n      revert\n    tag_45:\n        /* \"contracts/stakingETH.sol\":2962:2968  1 days */\n      0x015180\n        /* \"contracts/stakingETH.sol\":2928:2934  stakes */\n      0x00\n        /* \"contracts/stakingETH.sol\":2928:2946  stakes[msg.sender] */\n      dup1\n        /* \"contracts/stakingETH.sol\":2935:2945  msg.sender */\n      caller\n        /* \"contracts/stakingETH.sol\":2928:2946  stakes[msg.sender] */\n      0xffffffffffffffffffffffffffffffffffffffff\n      and\n      0xffffffffffffffffffffffffffffffffffffffff\n      and\n      dup2\n      mstore\n      0x20\n      add\n      swap1\n      dup2\n      mstore\n      0x20\n      add\n      0x00\n      keccak256\n        /* \"contracts/stakingETH.sol\":2928:2959  stakes[msg.sender].numberOfDays */\n      0x01\n      add\n      sload\n        /* \"contracts/stakingETH.sol\":2928:2968  stakes[msg.sender].numberOfDays * 1 days */\n      tag_48\n      swap2\n      swap1\n      tag_49\n      jump\t// in\n    tag_48:\n        /* \"contracts/stakingETH.sol\":2885:2891  stakes */\n      0x00\n        /* \"contracts/stakingETH.sol\":2885:2903  stakes[msg.sender] */\n      dup1\n        /* \"contracts/stakingETH.sol\":2892:2902  msg.sender */\n      caller\n        /* \"contracts/stakingETH.sol\":2885:2903  stakes[msg.sender] */\n      0xffffffffffffffffffffffffffffffffffffffff\n      and\n      0xffffffffffffffffffffffffffffffffffffffff\n      and\n      dup2\n      mstore\n      0x20\n      add\n      swap1\n      dup2\n      mstore\n      0x20\n      add\n      0x00\n      keccak256\n        /* \"contracts/stakingETH.sol\":2885:2925  stakes[msg.sender].registrationTimestamp */\n      0x02\n      add\n      sload\n        /* \"contracts/stakingETH.sol\":2885:2968  stakes[msg.sender].registrationTimestamp + stakes[msg.sender].numberOfDays * 1 days */\n      tag_50\n      swap2\n      swap1\n      tag_51\n      jump\t// in\n    tag_50:\n        /* \"contracts/stakingETH.sol\":2866:2881  block.timestamp */\n      timestamp\n        /* \"contracts/stakingETH.sol\":2866:2968  block.timestamp >= stakes[msg.sender].registrationTimestamp + stakes[msg.sender].numberOfDays * 1 days */\n      lt\n      iszero\n        /* \"contracts/stakingETH.sol\":2858:2996  require(block.timestamp >= stakes[msg.sender].registrationTimestamp + stakes[msg.sender].numberOfDays * 1 days,\"chill can't withdraw yet\") */\n      tag_52\n      jumpi\n      mload(0x40)\n      0x08c379a000000000000000000000000000000000000000000000000000000000\n      dup2\n      mstore\n      0x04\n      add\n      tag_53\n      swap1\n      tag_54\n      jump\t// in\n    tag_53:\n      mload(0x40)\n      dup1\n      swap2\n      sub\n      swap1\n      revert\n    tag_52:\n        /* \"contracts/stakingETH.sol\":3006:3025  uint256 amountToPay */\n      0x00\n        /* \"contracts/stakingETH.sol\":3080:3086  stakes */\n      dup1\n        /* \"contracts/stakingETH.sol\":3080:3098  stakes[msg.sender] */\n      0x00\n        /* \"contracts/stakingETH.sol\":3087:3097  msg.sender */\n      caller\n        /* \"contracts/stakingETH.sol\":3080:3098  stakes[msg.sender] */\n      0xffffffffffffffffffffffffffffffffffffffff\n      and\n      0xffffffffffffffffffffffffffffffffffffffff\n      and\n      dup2\n      mstore\n      0x20\n      add\n      swap1\n      dup2\n      mstore\n      0x20\n      add\n      0x00\n      keccak256\n        /* \"contracts/stakingETH.sol\":3080:3111  stakes[msg.sender].amountStaked */\n      0x00\n      add\n      sload\n        /* \"contracts/stakingETH.sol\":3028:3077  _calculateReward(stakes[msg.sender].numberOfDays) */\n      tag_55\n        /* \"contracts/stakingETH.sol\":3045:3051  stakes */\n      0x00\n        /* \"contracts/stakingETH.sol\":3045:3063  stakes[msg.sender] */\n      dup1\n        /* \"contracts/stakingETH.sol\":3052:3062  msg.sender */\n      caller\n        /* \"contracts/stakingETH.sol\":3045:3063  stakes[msg.sender] */\n      0xffffffffffffffffffffffffffffffffffffffff\n      and\n      0xffffffffffffffffffffffffffffffffffffffff\n      and\n      dup2\n      mstore\n      0x20\n      add\n      swap1\n      dup2\n      mstore\n      0x20\n      add\n      0x00\n      keccak256\n        /* \"contracts/stakingETH.sol\":3045:3076  stakes[msg.sender].numberOfDays */\n      0x01\n      add\n      sload\n        /* \"contracts/stakingETH.sol\":3028:3044  _calculateReward */\n      tag_56\n        /* \"contracts/stakingETH.sol\":3028:3077  _calculateReward(stakes[msg.sender].numberOfDays) */\n      jump\t// in\n    tag_55:\n        /* \"contracts/stakingETH.sol\":3028:3111  _calculateReward(stakes[msg.sender].numberOfDays) + stakes[msg.sender].amountStaked */\n      tag_57\n      swap2\n      swap1\n      tag_51\n      jump\t// in\n    tag_57:\n        /* \"contracts/stakingETH.sol\":3006:3111  uint256 amountToPay = _calculateReward(stakes[msg.sender].numberOfDays) + stakes[msg.sender].amountStaked */\n      swap1\n      pop\n        /* \"contracts/stakingETH.sol\":3155:3156  0 */\n      0x00\n        /* \"contracts/stakingETH.sol\":3121:3127  stakes */\n      dup1\n        /* \"contracts/stakingETH.sol\":3121:3139  stakes[msg.sender] */\n      0x00\n        /* \"contracts/stakingETH.sol\":3128:3138  msg.sender */\n      caller\n        /* \"contracts/stakingETH.sol\":3121:3139  stakes[msg.sender] */\n      0xffffffffffffffffffffffffffffffffffffffff\n      and\n      0xffffffffffffffffffffffffffffffffffffffff\n      and\n      dup2\n      mstore\n      0x20\n      add\n      swap1\n      dup2\n      mstore\n      0x20\n      add\n      0x00\n      keccak256\n        /* \"contracts/stakingETH.sol\":3121:3152  stakes[msg.sender].amountStaked */\n      0x00\n      add\n        /* \"contracts/stakingETH.sol\":3121:3156  stakes[msg.sender].amountStaked = 0 */\n      dup2\n      swap1\n      sstore\n      pop\n        /* \"contracts/stakingETH.sol\":3195:3200  false */\n      0x00\n        /* \"contracts/stakingETH.sol\":3166:3172  stakes */\n      dup1\n        /* \"contracts/stakingETH.sol\":3166:3184  stakes[msg.sender] */\n      0x00\n        /* \"contracts/stakingETH.sol\":3173:3183  msg.sender */\n      caller\n        /* \"contracts/stakingETH.sol\":3166:3184  stakes[msg.sender] */\n      0xffffffffffffffffffffffffffffffffffffffff\n      and\n      0xffffffffffffffffffffffffffffffffffffffff\n      and\n      dup2\n      mstore\n      0x20\n      add\n      swap1\n      dup2\n      mstore\n      0x20\n      add\n      0x00\n      keccak256\n        /* \"contracts/stakingETH.sol\":3166:3192  stakes[msg.sender].isvalid */\n      0x03\n      add\n      0x00\n        /* \"contracts/stakingETH.sol\":3166:3200  stakes[msg.sender].isvalid = false */\n      0x0100\n      exp\n      dup2\n      sload\n      dup2\n      0xff\n      mul\n      not\n      and\n      swap1\n      dup4\n      iszero\n      iszero\n      mul\n      or\n      swap1\n      sstore\n      pop\n        /* \"contracts/stakingETH.sol\":3251:3257  stakes */\n      0x00\n        /* \"contracts/stakingETH.sol\":3251:3269  stakes[msg.sender] */\n      dup1\n        /* \"contracts/stakingETH.sol\":3258:3268  msg.sender */\n      caller\n        /* \"contracts/stakingETH.sol\":3251:3269  stakes[msg.sender] */\n      0xffffffffffffffffffffffffffffffffffffffff\n      and\n      0xffffffffffffffffffffffffffffffffffffffff\n      and\n      dup2\n      mstore\n      0x20\n      add\n      swap1\n      dup2\n      mstore\n      0x20\n      add\n      0x00\n      keccak256\n        /* \"contracts/stakingETH.sol\":3251:3282  stakes[msg.sender].amountStaked */\n      0x00\n      add\n      sload\n        /* \"contracts/stakingETH.sol\":3230:3247  totalAmountStaked */\n      sload(0x01)\n        /* \"contracts/stakingETH.sol\":3230:3282  totalAmountStaked -  stakes[msg.sender].amountStaked */\n      tag_58\n      swap2\n      swap1\n      tag_59\n      jump\t// in\n    tag_58:\n        /* \"contracts/stakingETH.sol\":3210:3227  totalAmountStaked */\n      0x01\n        /* \"contracts/stakingETH.sol\":3210:3282  totalAmountStaked = totalAmountStaked -  stakes[msg.sender].amountStaked */\n      dup2\n      swap1\n      sstore\n      pop\n        /* \"contracts/stakingETH.sol\":3293:3305  bool success */\n      0x00\n        /* \"contracts/stakingETH.sol\":3310:3320  msg.sender */\n      caller\n        /* \"contracts/stakingETH.sol\":3310:3325  msg.sender.call */\n      0xffffffffffffffffffffffffffffffffffffffff\n      and\n        /* \"contracts/stakingETH.sol\":3334:3345  amountToPay */\n      dup3\n        /* \"contracts/stakingETH.sol\":3310:3350  msg.sender.call{value : amountToPay}(\"\") */\n      mload(0x40)\n      tag_60\n      swap1\n      tag_61\n      jump\t// in\n    tag_60:\n      0x00\n      mload(0x40)\n      dup1\n      dup4\n      sub\n      dup2\n      dup6\n      dup8\n      gas\n      call\n      swap3\n      pop\n      pop\n      pop\n      returndatasize\n      dup1\n      0x00\n      dup2\n      eq\n      tag_64\n      jumpi\n      mload(0x40)\n      swap2\n      pop\n      and(add(returndatasize, 0x3f), not(0x1f))\n      dup3\n      add\n      0x40\n      mstore\n      returndatasize\n      dup3\n      mstore\n      returndatasize\n      0x00\n      0x20\n      dup5\n      add\n      returndatacopy\n      jump(tag_63)\n    tag_64:\n      0x60\n      swap2\n      pop\n    tag_63:\n      pop\n        /* \"contracts/stakingETH.sol\":3292:3350  (bool success,) = msg.sender.call{value : amountToPay}(\"\") */\n      pop\n      swap1\n      pop\n        /* \"contracts/stakingETH.sol\":3368:3375  success */\n      dup1\n        /* \"contracts/stakingETH.sol\":3360:3399  require(success,\"something went wrong\") */\n      tag_65\n      jumpi\n      mload(0x40)\n      0x08c379a000000000000000000000000000000000000000000000000000000000\n      dup2\n      mstore\n      0x04\n      add\n      tag_66\n      swap1\n      tag_67\n      jump\t// in\n    tag_66:\n      mload(0x40)\n      dup1\n      swap2\n      sub\n      swap1\n      revert\n    tag_65:\n        /* \"contracts/stakingETH.sol\":2650:3407  {... */\n      pop\n      pop\n        /* \"contracts/stakingETH.sol\":2621:3407  function withdraw() external {... */\n      jump\t// out\n        /* \"contracts/stakingETH.sol\":661:682  uint8 public fixedAPY */\n    tag_15:\n      0x02\n      0x00\n      swap1\n      sload\n      swap1\n      0x0100\n      exp\n      swap1\n      div\n      0xff\n      and\n      dup2\n      jump\t// out\n        /* \"contracts/stakingETH.sol\":1892:2615  function emergencyWithdraw(uint256 _amount) external {... */\n    tag_22:\n        /* \"contracts/stakingETH.sol\":1985:1986  0 */\n      0x00\n        /* \"contracts/stakingETH.sol\":1963:1987  msg.sender != address(0) */\n      0xffffffffffffffffffffffffffffffffffffffff\n      and\n        /* \"contracts/stakingETH.sol\":1963:1973  msg.sender */\n      caller\n        /* \"contracts/stakingETH.sol\":1963:1987  msg.sender != address(0) */\n      0xffffffffffffffffffffffffffffffffffffffff\n      and\n      sub\n        /* \"contracts/stakingETH.sol\":1955:2013  require(msg.sender != address(0), \"zero address detected\") */\n      tag_69\n      jumpi\n      mload(0x40)\n      0x08c379a000000000000000000000000000000000000000000000000000000000\n      dup2\n      mstore\n      0x04\n      add\n      tag_70\n      swap1\n      tag_44\n      jump\t// in\n    tag_70:\n      mload(0x40)\n      dup1\n      swap2\n      sub\n      swap1\n      revert\n    tag_69:\n        /* \"contracts/stakingETH.sol\":2127:2134  _amount */\n      dup1\n        /* \"contracts/stakingETH.sol\":2092:2098  stakes */\n      0x00\n        /* \"contracts/stakingETH.sol\":2092:2110  stakes[msg.sender] */\n      dup1\n        /* \"contracts/stakingETH.sol\":2099:2109  msg.sender */\n      caller\n        /* \"contracts/stakingETH.sol\":2092:2110  stakes[msg.sender] */\n      0xffffffffffffffffffffffffffffffffffffffff\n      and\n      0xffffffffffffffffffffffffffffffffffffffff\n      and\n      dup2\n      mstore\n      0x20\n      add\n      swap1\n      dup2\n      mstore\n      0x20\n      add\n      0x00\n      keccak256\n        /* \"contracts/stakingETH.sol\":2092:2123  stakes[msg.sender].amountStaked */\n      0x00\n      add\n      sload\n        /* \"contracts/stakingETH.sol\":2092:2134  stakes[msg.sender].amountStaked >= _amount */\n      lt\n      iszero\n        /* \"contracts/stakingETH.sol\":2084:2165  require(stakes[msg.sender].amountStaked >= _amount, \"you do not have the funds \") */\n      tag_71\n      jumpi\n      mload(0x40)\n      0x08c379a000000000000000000000000000000000000000000000000000000000\n      dup2\n      mstore\n      0x04\n      add\n      tag_72\n      swap1\n      tag_73\n      jump\t// in\n    tag_72:\n      mload(0x40)\n      dup1\n      swap2\n      sub\n      swap1\n      revert\n    tag_71:\n        /* \"contracts/stakingETH.sol\":2183:2189  stakes */\n      0x00\n        /* \"contracts/stakingETH.sol\":2183:2201  stakes[msg.sender] */\n      dup1\n        /* \"contracts/stakingETH.sol\":2190:2200  msg.sender */\n      caller\n        /* \"contracts/stakingETH.sol\":2183:2201  stakes[msg.sender] */\n      0xffffffffffffffffffffffffffffffffffffffff\n      and\n      0xffffffffffffffffffffffffffffffffffffffff\n      and\n      dup2\n      mstore\n      0x20\n      add\n      swap1\n      dup2\n      mstore\n      0x20\n      add\n      0x00\n      keccak256\n        /* \"contracts/stakingETH.sol\":2183:2209  stakes[msg.sender].isvalid */\n      0x03\n      add\n      0x00\n      swap1\n      sload\n      swap1\n      0x0100\n      exp\n      swap1\n      div\n      0xff\n      and\n        /* \"contracts/stakingETH.sol\":2175:2234  require(stakes[msg.sender].isvalid, \"user cannot withdraw\") */\n      tag_74\n      jumpi\n      mload(0x40)\n      0x08c379a000000000000000000000000000000000000000000000000000000000\n      dup2\n      mstore\n      0x04\n      add\n      tag_75\n      swap1\n      tag_47\n      jump\t// in\n    tag_75:\n      mload(0x40)\n      dup1\n      swap2\n      sub\n      swap1\n      revert\n    tag_74:\n        /* \"contracts/stakingETH.sol\":2321:2328  _amount */\n      dup1\n        /* \"contracts/stakingETH.sol\":2287:2293  stakes */\n      0x00\n        /* \"contracts/stakingETH.sol\":2287:2305  stakes[msg.sender] */\n      dup1\n        /* \"contracts/stakingETH.sol\":2294:2304  msg.sender */\n      caller\n        /* \"contracts/stakingETH.sol\":2287:2305  stakes[msg.sender] */\n      0xffffffffffffffffffffffffffffffffffffffff\n      and\n      0xffffffffffffffffffffffffffffffffffffffff\n      and\n      dup2\n      mstore\n      0x20\n      add\n      swap1\n      dup2\n      mstore\n      0x20\n      add\n      0x00\n      keccak256\n        /* \"contracts/stakingETH.sol\":2287:2318  stakes[msg.sender].amountStaked */\n      0x00\n      add\n      sload\n        /* \"contracts/stakingETH.sol\":2287:2328  stakes[msg.sender].amountStaked - _amount */\n      tag_76\n      swap2\n      swap1\n      tag_59\n      jump\t// in\n    tag_76:\n        /* \"contracts/stakingETH.sol\":2253:2259  stakes */\n      0x00\n        /* \"contracts/stakingETH.sol\":2253:2271  stakes[msg.sender] */\n      dup1\n        /* \"contracts/stakingETH.sol\":2260:2270  msg.sender */\n      caller\n        /* \"contracts/stakingETH.sol\":2253:2271  stakes[msg.sender] */\n      0xffffffffffffffffffffffffffffffffffffffff\n      and\n      0xffffffffffffffffffffffffffffffffffffffff\n      and\n      dup2\n      mstore\n      0x20\n      add\n      swap1\n      dup2\n      mstore\n      0x20\n      add\n      0x00\n      keccak256\n        /* \"contracts/stakingETH.sol\":2253:2284  stakes[msg.sender].amountStaked */\n      0x00\n      add\n        /* \"contracts/stakingETH.sol\":2253:2328  stakes[msg.sender].amountStaked = stakes[msg.sender].amountStaked - _amount */\n      dup2\n      swap1\n      sstore\n      pop\n        /* \"contracts/stakingETH.sol\":2377:2378  0 */\n      0x00\n        /* \"contracts/stakingETH.sol\":2342:2348  stakes */\n      dup1\n        /* \"contracts/stakingETH.sol\":2342:2360  stakes[msg.sender] */\n      0x00\n        /* \"contracts/stakingETH.sol\":2349:2359  msg.sender */\n      caller\n        /* \"contracts/stakingETH.sol\":2342:2360  stakes[msg.sender] */\n      0xffffffffffffffffffffffffffffffffffffffff\n      and\n      0xffffffffffffffffffffffffffffffffffffffff\n      and\n      dup2\n      mstore\n      0x20\n      add\n      swap1\n      dup2\n      mstore\n      0x20\n      add\n      0x00\n      keccak256\n        /* \"contracts/stakingETH.sol\":2342:2373  stakes[msg.sender].amountStaked */\n      0x00\n      add\n      sload\n        /* \"contracts/stakingETH.sol\":2342:2378  stakes[msg.sender].amountStaked == 0 */\n      sub\n        /* \"contracts/stakingETH.sol\":2338:2438  if (stakes[msg.sender].amountStaked == 0){... */\n      tag_77\n      jumpi\n        /* \"contracts/stakingETH.sol\":2422:2427  false */\n      0x00\n        /* \"contracts/stakingETH.sol\":2393:2399  stakes */\n      dup1\n        /* \"contracts/stakingETH.sol\":2393:2411  stakes[msg.sender] */\n      0x00\n        /* \"contracts/stakingETH.sol\":2400:2410  msg.sender */\n      caller\n        /* \"contracts/stakingETH.sol\":2393:2411  stakes[msg.sender] */\n      0xffffffffffffffffffffffffffffffffffffffff\n      and\n      0xffffffffffffffffffffffffffffffffffffffff\n      and\n      dup2\n      mstore\n      0x20\n      add\n      swap1\n      dup2\n      mstore\n      0x20\n      add\n      0x00\n      keccak256\n        /* \"contracts/stakingETH.sol\":2393:2419  stakes[msg.sender].isvalid */\n      0x03\n      add\n      0x00\n        /* \"contracts/stakingETH.sol\":2393:2427  stakes[msg.sender].isvalid = false */\n      0x0100\n      exp\n      dup2\n      sload\n      dup2\n      0xff\n      mul\n      not\n      and\n      swap1\n      dup4\n      iszero\n      iszero\n      mul\n      or\n      swap1\n      sstore\n      pop\n        /* \"contracts/stakingETH.sol\":2338:2438  if (stakes[msg.sender].amountStaked == 0){... */\n    tag_77:\n        /* \"contracts/stakingETH.sol\":2487:2494  _amount */\n      dup1\n        /* \"contracts/stakingETH.sol\":2467:2484  totalAmountStaked */\n      sload(0x01)\n        /* \"contracts/stakingETH.sol\":2467:2494  totalAmountStaked - _amount */\n      tag_78\n      swap2\n      swap1\n      tag_59\n      jump\t// in\n    tag_78:\n        /* \"contracts/stakingETH.sol\":2447:2464  totalAmountStaked */\n      0x01\n        /* \"contracts/stakingETH.sol\":2447:2494  totalAmountStaked = totalAmountStaked - _amount */\n      dup2\n      swap1\n      sstore\n      pop\n        /* \"contracts/stakingETH.sol\":2505:2517  bool success */\n      0x00\n        /* \"contracts/stakingETH.sol\":2522:2532  msg.sender */\n      caller\n        /* \"contracts/stakingETH.sol\":2522:2537  msg.sender.call */\n      0xffffffffffffffffffffffffffffffffffffffff\n      and\n        /* \"contracts/stakingETH.sol\":2546:2553  _amount */\n      dup3\n        /* \"contracts/stakingETH.sol\":2522:2558  msg.sender.call{value : _amount}(\"\") */\n      mload(0x40)\n      tag_79\n      swap1\n      tag_61\n      jump\t// in\n    tag_79:\n      0x00\n      mload(0x40)\n      dup1\n      dup4\n      sub\n      dup2\n      dup6\n      dup8\n      gas\n      call\n      swap3\n      pop\n      pop\n      pop\n      returndatasize\n      dup1\n      0x00\n      dup2\n      eq\n      tag_82\n      jumpi\n      mload(0x40)\n      swap2\n      pop\n      and(add(returndatasize, 0x3f), not(0x1f))\n      dup3\n      add\n      0x40\n      mstore\n      returndatasize\n      dup3\n      mstore\n      returndatasize\n      0x00\n      0x20\n      dup5\n      add\n      returndatacopy\n      jump(tag_81)\n    tag_82:\n      0x60\n      swap2\n      pop\n    tag_81:\n      pop\n        /* \"contracts/stakingETH.sol\":2504:2558  (bool success,) = msg.sender.call{value : _amount}(\"\") */\n      pop\n      swap1\n      pop\n        /* \"contracts/stakingETH.sol\":2576:2583  success */\n      dup1\n        /* \"contracts/stakingETH.sol\":2568:2607  require(success,\"something went wrong\") */\n      tag_83\n      jumpi\n      mload(0x40)\n      0x08c379a000000000000000000000000000000000000000000000000000000000\n      dup2\n      mstore\n      0x04\n      add\n      tag_84\n      swap1\n      tag_67\n      jump\t// in\n    tag_84:\n      mload(0x40)\n      dup1\n      swap2\n      sub\n      swap1\n      revert\n    tag_83:\n        /* \"contracts/stakingETH.sol\":1945:2615  {... */\n      pop\n        /* \"contracts/stakingETH.sol\":1892:2615  function emergencyWithdraw(uint256 _amount) external {... */\n      pop\n      jump\t// out\n        /* \"contracts/stakingETH.sol\":1334:1450  function getMyStakedAmount() external view returns (uint256) {... */\n    tag_25:\n        /* \"contracts/stakingETH.sol\":1386:1393  uint256 */\n      0x00\n        /* \"contracts/stakingETH.sol\":1412:1418  stakes */\n      dup1\n        /* \"contracts/stakingETH.sol\":1412:1430  stakes[msg.sender] */\n      0x00\n        /* \"contracts/stakingETH.sol\":1419:1429  msg.sender */\n      caller\n        /* \"contracts/stakingETH.sol\":1412:1430  stakes[msg.sender] */\n      0xffffffffffffffffffffffffffffffffffffffff\n      and\n      0xffffffffffffffffffffffffffffffffffffffff\n      and\n      dup2\n      mstore\n      0x20\n      add\n      swap1\n      dup2\n      mstore\n      0x20\n      add\n      0x00\n      keccak256\n        /* \"contracts/stakingETH.sol\":1412:1443  stakes[msg.sender].amountStaked */\n      0x00\n      add\n      sload\n        /* \"contracts/stakingETH.sol\":1405:1443  return stakes[msg.sender].amountStaked */\n      swap1\n      pop\n        /* \"contracts/stakingETH.sol\":1334:1450  function getMyStakedAmount() external view returns (uint256) {... */\n      swap1\n      jump\t// out\n        /* \"contracts/stakingETH.sol\":1456:1830  function stake(uint256 _days) external  payable  {... */\n    tag_30:\n        /* \"contracts/stakingETH.sol\":1544:1545  0 */\n      0x00\n        /* \"contracts/stakingETH.sol\":1522:1546  msg.sender != address(0) */\n      0xffffffffffffffffffffffffffffffffffffffff\n      and\n        /* \"contracts/stakingETH.sol\":1522:1532  msg.sender */\n      caller\n        /* \"contracts/stakingETH.sol\":1522:1546  msg.sender != address(0) */\n      0xffffffffffffffffffffffffffffffffffffffff\n      and\n      sub\n        /* \"contracts/stakingETH.sol\":1514:1572  require(msg.sender != address(0), \"zero address detected\") */\n      tag_87\n      jumpi\n      mload(0x40)\n      0x08c379a000000000000000000000000000000000000000000000000000000000\n      dup2\n      mstore\n      0x04\n      add\n      tag_88\n      swap1\n      tag_44\n      jump\t// in\n    tag_88:\n      mload(0x40)\n      dup1\n      swap2\n      sub\n      swap1\n      revert\n    tag_87:\n        /* \"contracts/stakingETH.sol\":1601:1602  0 */\n      0x00\n        /* \"contracts/stakingETH.sol\":1589:1598  msg.value */\n      callvalue\n        /* \"contracts/stakingETH.sol\":1589:1602  msg.value > 0 */\n      gt\n        /* \"contracts/stakingETH.sol\":1581:1628  require(msg.value > 0 ,\" you have  send value\") */\n      tag_89\n      jumpi\n      mload(0x40)\n      0x08c379a000000000000000000000000000000000000000000000000000000000\n      dup2\n      mstore\n      0x04\n      add\n      tag_90\n      swap1\n      tag_91\n      jump\t// in\n    tag_90:\n      mload(0x40)\n      dup1\n      swap2\n      sub\n      swap1\n      revert\n    tag_89:\n        /* \"contracts/stakingETH.sol\":1658:1673  maxAmountStaked */\n      sload(0x04)\n        /* \"contracts/stakingETH.sol\":1645:1654  msg.value */\n      callvalue\n        /* \"contracts/stakingETH.sol\":1645:1673  msg.value <= maxAmountStaked */\n      gt\n      iszero\n        /* \"contracts/stakingETH.sol\":1637:1699  require(msg.value <= maxAmountStaked ,\" you have  send value\") */\n      tag_92\n      jumpi\n      mload(0x40)\n      0x08c379a000000000000000000000000000000000000000000000000000000000\n      dup2\n      mstore\n      0x04\n      add\n      tag_93\n      swap1\n      tag_91\n      jump\t// in\n    tag_93:\n      mload(0x40)\n      dup1\n      swap2\n      sub\n      swap1\n      revert\n    tag_92:\n        /* \"contracts/stakingETH.sol\":1813:1822  msg.value */\n      callvalue\n        /* \"contracts/stakingETH.sol\":1792:1809  totalAmountStaked */\n      sload(0x01)\n        /* \"contracts/stakingETH.sol\":1792:1822  totalAmountStaked +  msg.value */\n      tag_94\n      swap2\n      swap1\n      tag_51\n      jump\t// in\n    tag_94:\n        /* \"contracts/stakingETH.sol\":1772:1789  totalAmountStaked */\n      0x01\n        /* \"contracts/stakingETH.sol\":1772:1822  totalAmountStaked = totalAmountStaked +  msg.value */\n      dup2\n      swap1\n      sstore\n      pop\n        /* \"contracts/stakingETH.sol\":1456:1830  function stake(uint256 _days) external  payable  {... */\n      pop\n      jump\t// out\n        /* \"contracts/stakingETH.sol\":1173:1328  function getAmountStakebyUser(address _user)... */\n    tag_35:\n        /* \"contracts/stakingETH.sol\":1265:1272  uint256 */\n      0x00\n        /* \"contracts/stakingETH.sol\":1295:1301  stakes */\n      dup1\n        /* \"contracts/stakingETH.sol\":1295:1308  stakes[_user] */\n      0x00\n        /* \"contracts/stakingETH.sol\":1302:1307  _user */\n      dup4\n        /* \"contracts/stakingETH.sol\":1295:1308  stakes[_user] */\n      0xffffffffffffffffffffffffffffffffffffffff\n      and\n      0xffffffffffffffffffffffffffffffffffffffff\n      and\n      dup2\n      mstore\n      0x20\n      add\n      swap1\n      dup2\n      mstore\n      0x20\n      add\n      0x00\n      keccak256\n        /* \"contracts/stakingETH.sol\":1295:1321  stakes[_user].amountStaked */\n      0x00\n      add\n      sload\n        /* \"contracts/stakingETH.sol\":1287:1321  return  stakes[_user].amountStaked */\n      swap1\n      pop\n        /* \"contracts/stakingETH.sol\":1173:1328  function getAmountStakebyUser(address _user)... */\n      swap2\n      swap1\n      pop\n      jump\t// out\n        /* \"contracts/stakingETH.sol\":615:647  uint256 public totalAmountStaked */\n    tag_39:\n      sload(0x01)\n      dup2\n      jump\t// out\n        /* \"contracts/stakingETH.sol\":3413:3577  function _calculateReward(uint256 _days) private view returns (uint256) {... */\n    tag_56:\n        /* \"contracts/stakingETH.sol\":3476:3483  uint256 */\n      0x00\n        /* \"contracts/stakingETH.sol\":3552:3557  36500 */\n      0x8e94\n        /* \"contracts/stakingETH.sol\":3543:3548  _days */\n      dup3\n        /* \"contracts/stakingETH.sol\":3534:3542  fixedAPY */\n      0x02\n      0x00\n      swap1\n      sload\n      swap1\n      0x0100\n      exp\n      swap1\n      div\n      0xff\n      and\n        /* \"contracts/stakingETH.sol\":3502:3542  stakes[msg.sender].amountStaked*fixedAPY */\n      0xff\n      and\n        /* \"contracts/stakingETH.sol\":3502:3508  stakes */\n      0x00\n        /* \"contracts/stakingETH.sol\":3502:3520  stakes[msg.sender] */\n      dup1\n        /* \"contracts/stakingETH.sol\":3509:3519  msg.sender */\n      caller\n        /* \"contracts/stakingETH.sol\":3502:3520  stakes[msg.sender] */\n      0xffffffffffffffffffffffffffffffffffffffff\n      and\n      0xffffffffffffffffffffffffffffffffffffffff\n      and\n      dup2\n      mstore\n      0x20\n      add\n      swap1\n      dup2\n      mstore\n      0x20\n      add\n      0x00\n      keccak256\n        /* \"contracts/stakingETH.sol\":3502:3533  stakes[msg.sender].amountStaked */\n      0x00\n      add\n      sload\n        /* \"contracts/stakingETH.sol\":3502:3542  stakes[msg.sender].amountStaked*fixedAPY */\n      tag_97\n      swap2\n      swap1\n      tag_49\n      jump\t// in\n    tag_97:\n        /* \"contracts/stakingETH.sol\":3502:3548  stakes[msg.sender].amountStaked*fixedAPY*_days */\n      tag_98\n      swap2\n      swap1\n      tag_49\n      jump\t// in\n    tag_98:\n        /* \"contracts/stakingETH.sol\":3501:3557  (stakes[msg.sender].amountStaked*fixedAPY*_days) / 36500 */\n      tag_99\n      swap2\n      swap1\n      tag_100\n      jump\t// in\n    tag_99:\n        /* \"contracts/stakingETH.sol\":3494:3557  return (stakes[msg.sender].amountStaked*fixedAPY*_days) / 36500 */\n      swap1\n      pop\n        /* \"contracts/stakingETH.sol\":3413:3577  function _calculateReward(uint256 _days) private view returns (uint256) {... */\n      swap2\n      swap1\n      pop\n      jump\t// out\n        /* \"#utility.yul\":7:93   */\n    tag_101:\n        /* \"#utility.yul\":42:49   */\n      0x00\n        /* \"#utility.yul\":82:86   */\n      0xff\n        /* \"#utility.yul\":75:80   */\n      dup3\n        /* \"#utility.yul\":71:87   */\n      and\n        /* \"#utility.yul\":60:87   */\n      swap1\n      pop\n        /* \"#utility.yul\":7:93   */\n      swap2\n      swap1\n      pop\n      jump\t// out\n        /* \"#utility.yul\":99:211   */\n    tag_102:\n        /* \"#utility.yul\":182:204   */\n      tag_135\n        /* \"#utility.yul\":198:203   */\n      dup2\n        /* \"#utility.yul\":182:204   */\n      tag_101\n      jump\t// in\n    tag_135:\n        /* \"#utility.yul\":177:180   */\n      dup3\n        /* \"#utility.yul\":170:205   */\n      mstore\n        /* \"#utility.yul\":99:211   */\n      pop\n      pop\n      jump\t// out\n        /* \"#utility.yul\":217:431   */\n    tag_17:\n        /* \"#utility.yul\":306:310   */\n      0x00\n        /* \"#utility.yul\":344:346   */\n      0x20\n        /* \"#utility.yul\":333:342   */\n      dup3\n        /* \"#utility.yul\":329:347   */\n      add\n        /* \"#utility.yul\":321:347   */\n      swap1\n      pop\n        /* \"#utility.yul\":357:424   */\n      tag_137\n        /* \"#utility.yul\":421:422   */\n      0x00\n        /* \"#utility.yul\":410:419   */\n      dup4\n        /* \"#utility.yul\":406:423   */\n      add\n        /* \"#utility.yul\":397:403   */\n      dup5\n        /* \"#utility.yul\":357:424   */\n      tag_102\n      jump\t// in\n    tag_137:\n        /* \"#utility.yul\":217:431   */\n      swap3\n      swap2\n      pop\n      pop\n      jump\t// out\n        /* \"#utility.yul\":518:635   */\n    tag_104:\n        /* \"#utility.yul\":627:628   */\n      0x00\n        /* \"#utility.yul\":624:625   */\n      dup1\n        /* \"#utility.yul\":617:629   */\n      revert\n        /* \"#utility.yul\":764:841   */\n    tag_106:\n        /* \"#utility.yul\":801:808   */\n      0x00\n        /* \"#utility.yul\":830:835   */\n      dup2\n        /* \"#utility.yul\":819:835   */\n      swap1\n      pop\n        /* \"#utility.yul\":764:841   */\n      swap2\n      swap1\n      pop\n      jump\t// out\n        /* \"#utility.yul\":847:969   */\n    tag_107:\n        /* \"#utility.yul\":920:944   */\n      tag_143\n        /* \"#utility.yul\":938:943   */\n      dup2\n        /* \"#utility.yul\":920:944   */\n      tag_106\n      jump\t// in\n    tag_143:\n        /* \"#utility.yul\":913:918   */\n      dup2\n        /* \"#utility.yul\":910:945   */\n      eq\n        /* \"#utility.yul\":900:963   */\n      tag_144\n      jumpi\n        /* \"#utility.yul\":959:960   */\n      0x00\n        /* \"#utility.yul\":956:957   */\n      dup1\n        /* \"#utility.yul\":949:961   */\n      revert\n        /* \"#utility.yul\":900:963   */\n    tag_144:\n        /* \"#utility.yul\":847:969   */\n      pop\n      jump\t// out\n        /* \"#utility.yul\":975:1114   */\n    tag_108:\n        /* \"#utility.yul\":1021:1026   */\n      0x00\n        /* \"#utility.yul\":1059:1065   */\n      dup2\n        /* \"#utility.yul\":1046:1066   */\n      calldataload\n        /* \"#utility.yul\":1037:1066   */\n      swap1\n      pop\n        /* \"#utility.yul\":1075:1108   */\n      tag_146\n        /* \"#utility.yul\":1102:1107   */\n      dup2\n        /* \"#utility.yul\":1075:1108   */\n      tag_107\n      jump\t// in\n    tag_146:\n        /* \"#utility.yul\":975:1114   */\n      swap3\n      swap2\n      pop\n      pop\n      jump\t// out\n        /* \"#utility.yul\":1120:1449   */\n    tag_21:\n        /* \"#utility.yul\":1179:1185   */\n      0x00\n        /* \"#utility.yul\":1228:1230   */\n      0x20\n        /* \"#utility.yul\":1216:1225   */\n      dup3\n        /* \"#utility.yul\":1207:1214   */\n      dup5\n        /* \"#utility.yul\":1203:1226   */\n      sub\n        /* \"#utility.yul\":1199:1231   */\n      slt\n        /* \"#utility.yul\":1196:1315   */\n      iszero\n      tag_148\n      jumpi\n        /* \"#utility.yul\":1234:1313   */\n      tag_149\n      tag_104\n      jump\t// in\n    tag_149:\n        /* \"#utility.yul\":1196:1315   */\n    tag_148:\n        /* \"#utility.yul\":1354:1355   */\n      0x00\n        /* \"#utility.yul\":1379:1432   */\n      tag_150\n        /* \"#utility.yul\":1424:1431   */\n      dup5\n        /* \"#utility.yul\":1415:1421   */\n      dup3\n        /* \"#utility.yul\":1404:1413   */\n      dup6\n        /* \"#utility.yul\":1400:1422   */\n      add\n        /* \"#utility.yul\":1379:1432   */\n      tag_108\n      jump\t// in\n    tag_150:\n        /* \"#utility.yul\":1369:1432   */\n      swap2\n      pop\n        /* \"#utility.yul\":1325:1442   */\n      pop\n        /* \"#utility.yul\":1120:1449   */\n      swap3\n      swap2\n      pop\n      pop\n      jump\t// out\n        /* \"#utility.yul\":1455:1573   */\n    tag_109:\n        /* \"#utility.yul\":1542:1566   */\n      tag_152\n        /* \"#utility.yul\":1560:1565   */\n      dup2\n        /* \"#utility.yul\":1542:1566   */\n      tag_106\n      jump\t// in\n    tag_152:\n        /* \"#utility.yul\":1537:1540   */\n      dup3\n        /* \"#utility.yul\":1530:1567   */\n      mstore\n        /* \"#utility.yul\":1455:1573   */\n      pop\n      pop\n      jump\t// out\n        /* \"#utility.yul\":1579:1801   */\n    tag_27:\n        /* \"#utility.yul\":1672:1676   */\n      0x00\n        /* \"#utility.yul\":1710:1712   */\n      0x20\n        /* \"#utility.yul\":1699:1708   */\n      dup3\n        /* \"#utility.yul\":1695:1713   */\n      add\n        /* \"#utility.yul\":1687:1713   */\n      swap1\n      pop\n        /* \"#utility.yul\":1723:1794   */\n      tag_154\n        /* \"#utility.yul\":1791:1792   */\n      0x00\n        /* \"#utility.yul\":1780:1789   */\n      dup4\n        /* \"#utility.yul\":1776:1793   */\n      add\n        /* \"#utility.yul\":1767:1773   */\n      dup5\n        /* \"#utility.yul\":1723:1794   */\n      tag_109\n      jump\t// in\n    tag_154:\n        /* \"#utility.yul\":1579:1801   */\n      swap3\n      swap2\n      pop\n      pop\n      jump\t// out\n        /* \"#utility.yul\":1807:1933   */\n    tag_110:\n        /* \"#utility.yul\":1844:1851   */\n      0x00\n        /* \"#utility.yul\":1884:1926   */\n      0xffffffffffffffffffffffffffffffffffffffff\n        /* \"#utility.yul\":1877:1882   */\n      dup3\n        /* \"#utility.yul\":1873:1927   */\n      and\n        /* \"#utility.yul\":1862:1927   */\n      swap1\n      pop\n        /* \"#utility.yul\":1807:1933   */\n      swap2\n      swap1\n      pop\n      jump\t// out\n        /* \"#utility.yul\":1939:2035   */\n    tag_111:\n        /* \"#utility.yul\":1976:1983   */\n      0x00\n        /* \"#utility.yul\":2005:2029   */\n      tag_157\n        /* \"#utility.yul\":2023:2028   */\n      dup3\n        /* \"#utility.yul\":2005:2029   */\n      tag_110\n      jump\t// in\n    tag_157:\n        /* \"#utility.yul\":1994:2029   */\n      swap1\n      pop\n        /* \"#utility.yul\":1939:2035   */\n      swap2\n      swap1\n      pop\n      jump\t// out\n        /* \"#utility.yul\":2041:2163   */\n    tag_112:\n        /* \"#utility.yul\":2114:2138   */\n      tag_159\n        /* \"#utility.yul\":2132:2137   */\n      dup2\n        /* \"#utility.yul\":2114:2138   */\n      tag_111\n      jump\t// in\n    tag_159:\n        /* \"#utility.yul\":2107:2112   */\n      dup2\n        /* \"#utility.yul\":2104:2139   */\n      eq\n        /* \"#utility.yul\":2094:2157   */\n      tag_160\n      jumpi\n        /* \"#utility.yul\":2153:2154   */\n      0x00\n        /* \"#utility.yul\":2150:2151   */\n      dup1\n        /* \"#utility.yul\":2143:2155   */\n      revert\n        /* \"#utility.yul\":2094:2157   */\n    tag_160:\n        /* \"#utility.yul\":2041:2163   */\n      pop\n      jump\t// out\n        /* \"#utility.yul\":2169:2308   */\n    tag_113:\n        /* \"#utility.yul\":2215:2220   */\n      0x00\n        /* \"#utility.yul\":2253:2259   */\n      dup2\n        /* \"#utility.yul\":2240:2260   */\n      calldataload\n        /* \"#utility.yul\":2231:2260   */\n      swap1\n      pop\n        /* \"#utility.yul\":2269:2302   */\n      tag_162\n        /* \"#utility.yul\":2296:2301   */\n      dup2\n        /* \"#utility.yul\":2269:2302   */\n      tag_112\n      jump\t// in\n    tag_162:\n        /* \"#utility.yul\":2169:2308   */\n      swap3\n      swap2\n      pop\n      pop\n      jump\t// out\n        /* \"#utility.yul\":2314:2643   */\n    tag_34:\n        /* \"#utility.yul\":2373:2379   */\n      0x00\n        /* \"#utility.yul\":2422:2424   */\n      0x20\n        /* \"#utility.yul\":2410:2419   */\n      dup3\n        /* \"#utility.yul\":2401:2408   */\n      dup5\n        /* \"#utility.yul\":2397:2420   */\n      sub\n        /* \"#utility.yul\":2393:2425   */\n      slt\n        /* \"#utility.yul\":2390:2509   */\n      iszero\n      tag_164\n      jumpi\n        /* \"#utility.yul\":2428:2507   */\n      tag_165\n      tag_104\n      jump\t// in\n    tag_165:\n        /* \"#utility.yul\":2390:2509   */\n    tag_164:\n        /* \"#utility.yul\":2548:2549   */\n      0x00\n        /* \"#utility.yul\":2573:2626   */\n      tag_166\n        /* \"#utility.yul\":2618:2625   */\n      dup5\n        /* \"#utility.yul\":2609:2615   */\n      dup3\n        /* \"#utility.yul\":2598:2607   */\n      dup6\n        /* \"#utility.yul\":2594:2616   */\n      add\n        /* \"#utility.yul\":2573:2626   */\n      tag_113\n      jump\t// in\n    tag_166:\n        /* \"#utility.yul\":2563:2626   */\n      swap2\n      pop\n        /* \"#utility.yul\":2519:2636   */\n      pop\n        /* \"#utility.yul\":2314:2643   */\n      swap3\n      swap2\n      pop\n      pop\n      jump\t// out\n        /* \"#utility.yul\":2649:2818   */\n    tag_114:\n        /* \"#utility.yul\":2733:2744   */\n      0x00\n        /* \"#utility.yul\":2767:2773   */\n      dup3\n        /* \"#utility.yul\":2762:2765   */\n      dup3\n        /* \"#utility.yul\":2755:2774   */\n      mstore\n        /* \"#utility.yul\":2807:2811   */\n      0x20\n        /* \"#utility.yul\":2802:2805   */\n      dup3\n        /* \"#utility.yul\":2798:2812   */\n      add\n        /* \"#utility.yul\":2783:2812   */\n      swap1\n      pop\n        /* \"#utility.yul\":2649:2818   */\n      swap3\n      swap2\n      pop\n      pop\n      jump\t// out\n        /* \"#utility.yul\":2824:2995   */\n    tag_115:\n        /* \"#utility.yul\":2964:2987   */\n      0x7a65726f20616464726573732064657465637465640000000000000000000000\n        /* \"#utility.yul\":2960:2961   */\n      0x00\n        /* \"#utility.yul\":2952:2958   */\n      dup3\n        /* \"#utility.yul\":2948:2962   */\n      add\n        /* \"#utility.yul\":2941:2988   */\n      mstore\n        /* \"#utility.yul\":2824:2995   */\n      pop\n      jump\t// out\n        /* \"#utility.yul\":3001:3367   */\n    tag_116:\n        /* \"#utility.yul\":3143:3146   */\n      0x00\n        /* \"#utility.yul\":3164:3231   */\n      tag_170\n        /* \"#utility.yul\":3228:3230   */\n      0x15\n        /* \"#utility.yul\":3223:3226   */\n      dup4\n        /* \"#utility.yul\":3164:3231   */\n      tag_114\n      jump\t// in\n    tag_170:\n        /* \"#utility.yul\":3157:3231   */\n      swap2\n      pop\n        /* \"#utility.yul\":3240:3333   */\n      tag_171\n        /* \"#utility.yul\":3329:3332   */\n      dup3\n        /* \"#utility.yul\":3240:3333   */\n      tag_115\n      jump\t// in\n    tag_171:\n        /* \"#utility.yul\":3358:3360   */\n      0x20\n        /* \"#utility.yul\":3353:3356   */\n      dup3\n        /* \"#utility.yul\":3349:3361   */\n      add\n        /* \"#utility.yul\":3342:3361   */\n      swap1\n      pop\n        /* \"#utility.yul\":3001:3367   */\n      swap2\n      swap1\n      pop\n      jump\t// out\n        /* \"#utility.yul\":3373:3792   */\n    tag_44:\n        /* \"#utility.yul\":3539:3543   */\n      0x00\n        /* \"#utility.yul\":3577:3579   */\n      0x20\n        /* \"#utility.yul\":3566:3575   */\n      dup3\n        /* \"#utility.yul\":3562:3580   */\n      add\n        /* \"#utility.yul\":3554:3580   */\n      swap1\n      pop\n        /* \"#utility.yul\":3626:3635   */\n      dup2\n        /* \"#utility.yul\":3620:3624   */\n      dup2\n        /* \"#utility.yul\":3616:3636   */\n      sub\n        /* \"#utility.yul\":3612:3613   */\n      0x00\n        /* \"#utility.yul\":3601:3610   */\n      dup4\n        /* \"#utility.yul\":3597:3614   */\n      add\n        /* \"#utility.yul\":3590:3637   */\n      mstore\n        /* \"#utility.yul\":3654:3785   */\n      tag_173\n        /* \"#utility.yul\":3780:3784   */\n      dup2\n        /* \"#utility.yul\":3654:3785   */\n      tag_116\n      jump\t// in\n    tag_173:\n        /* \"#utility.yul\":3646:3785   */\n      swap1\n      pop\n        /* \"#utility.yul\":3373:3792   */\n      swap2\n      swap1\n      pop\n      jump\t// out\n        /* \"#utility.yul\":3798:3968   */\n    tag_117:\n        /* \"#utility.yul\":3938:3960   */\n      0x757365722063616e6e6f74207769746864726177000000000000000000000000\n        /* \"#utility.yul\":3934:3935   */\n      0x00\n        /* \"#utility.yul\":3926:3932   */\n      dup3\n        /* \"#utility.yul\":3922:3936   */\n      add\n        /* \"#utility.yul\":3915:3961   */\n      mstore\n        /* \"#utility.yul\":3798:3968   */\n      pop\n      jump\t// out\n        /* \"#utility.yul\":3974:4340   */\n    tag_118:\n        /* \"#utility.yul\":4116:4119   */\n      0x00\n        /* \"#utility.yul\":4137:4204   */\n      tag_176\n        /* \"#utility.yul\":4201:4203   */\n      0x14\n        /* \"#utility.yul\":4196:4199   */\n      dup4\n        /* \"#utility.yul\":4137:4204   */\n      tag_114\n      jump\t// in\n    tag_176:\n        /* \"#utility.yul\":4130:4204   */\n      swap2\n      pop\n        /* \"#utility.yul\":4213:4306   */\n      tag_177\n        /* \"#utility.yul\":4302:4305   */\n      dup3\n        /* \"#utility.yul\":4213:4306   */\n      tag_117\n      jump\t// in\n    tag_177:\n        /* \"#utility.yul\":4331:4333   */\n      0x20\n        /* \"#utility.yul\":4326:4329   */\n      dup3\n        /* \"#utility.yul\":4322:4334   */\n      add\n        /* \"#utility.yul\":4315:4334   */\n      swap1\n      pop\n        /* \"#utility.yul\":3974:4340   */\n      swap2\n      swap1\n      pop\n      jump\t// out\n        /* \"#utility.yul\":4346:4765   */\n    tag_47:\n        /* \"#utility.yul\":4512:4516   */\n      0x00\n        /* \"#utility.yul\":4550:4552   */\n      0x20\n        /* \"#utility.yul\":4539:4548   */\n      dup3\n        /* \"#utility.yul\":4535:4553   */\n      add\n        /* \"#utility.yul\":4527:4553   */\n      swap1\n      pop\n        /* \"#utility.yul\":4599:4608   */\n      dup2\n        /* \"#utility.yul\":4593:4597   */\n      dup2\n        /* \"#utility.yul\":4589:4609   */\n      sub\n        /* \"#utility.yul\":4585:4586   */\n      0x00\n        /* \"#utility.yul\":4574:4583   */\n      dup4\n        /* \"#utility.yul\":4570:4587   */\n      add\n        /* \"#utility.yul\":4563:4610   */\n      mstore\n        /* \"#utility.yul\":4627:4758   */\n      tag_179\n        /* \"#utility.yul\":4753:4757   */\n      dup2\n        /* \"#utility.yul\":4627:4758   */\n      tag_118\n      jump\t// in\n    tag_179:\n        /* \"#utility.yul\":4619:4758   */\n      swap1\n      pop\n        /* \"#utility.yul\":4346:4765   */\n      swap2\n      swap1\n      pop\n      jump\t// out\n        /* \"#utility.yul\":4771:4951   */\n    tag_119:\n        /* \"#utility.yul\":4819:4896   */\n      0x4e487b7100000000000000000000000000000000000000000000000000000000\n        /* \"#utility.yul\":4816:4817   */\n      0x00\n        /* \"#utility.yul\":4809:4897   */\n      mstore\n        /* \"#utility.yul\":4916:4920   */\n      0x11\n        /* \"#utility.yul\":4913:4914   */\n      0x04\n        /* \"#utility.yul\":4906:4921   */\n      mstore\n        /* \"#utility.yul\":4940:4944   */\n      0x24\n        /* \"#utility.yul\":4937:4938   */\n      0x00\n        /* \"#utility.yul\":4930:4945   */\n      revert\n        /* \"#utility.yul\":4957:5367   */\n    tag_49:\n        /* \"#utility.yul\":4997:5004   */\n      0x00\n        /* \"#utility.yul\":5020:5040   */\n      tag_182\n        /* \"#utility.yul\":5038:5039   */\n      dup3\n        /* \"#utility.yul\":5020:5040   */\n      tag_106\n      jump\t// in\n    tag_182:\n        /* \"#utility.yul\":5015:5040   */\n      swap2\n      pop\n        /* \"#utility.yul\":5054:5074   */\n      tag_183\n        /* \"#utility.yul\":5072:5073   */\n      dup4\n        /* \"#utility.yul\":5054:5074   */\n      tag_106\n      jump\t// in\n    tag_183:\n        /* \"#utility.yul\":5049:5074   */\n      swap3\n      pop\n        /* \"#utility.yul\":5109:5110   */\n      dup3\n        /* \"#utility.yul\":5106:5107   */\n      dup3\n        /* \"#utility.yul\":5102:5111   */\n      mul\n        /* \"#utility.yul\":5131:5161   */\n      tag_184\n        /* \"#utility.yul\":5149:5160   */\n      dup2\n        /* \"#utility.yul\":5131:5161   */\n      tag_106\n      jump\t// in\n    tag_184:\n        /* \"#utility.yul\":5120:5161   */\n      swap2\n      pop\n        /* \"#utility.yul\":5310:5311   */\n      dup3\n        /* \"#utility.yul\":5301:5308   */\n      dup3\n        /* \"#utility.yul\":5297:5312   */\n      div\n        /* \"#utility.yul\":5294:5295   */\n      dup5\n        /* \"#utility.yul\":5291:5313   */\n      eq\n        /* \"#utility.yul\":5271:5272   */\n      dup4\n        /* \"#utility.yul\":5264:5273   */\n      iszero\n        /* \"#utility.yul\":5244:5327   */\n      or\n        /* \"#utility.yul\":5221:5360   */\n      tag_185\n      jumpi\n        /* \"#utility.yul\":5340:5358   */\n      tag_186\n      tag_119\n      jump\t// in\n    tag_186:\n        /* \"#utility.yul\":5221:5360   */\n    tag_185:\n        /* \"#utility.yul\":5005:5367   */\n      pop\n        /* \"#utility.yul\":4957:5367   */\n      swap3\n      swap2\n      pop\n      pop\n      jump\t// out\n        /* \"#utility.yul\":5373:5564   */\n    tag_51:\n        /* \"#utility.yul\":5413:5416   */\n      0x00\n        /* \"#utility.yul\":5432:5452   */\n      tag_188\n        /* \"#utility.yul\":5450:5451   */\n      dup3\n        /* \"#utility.yul\":5432:5452   */\n      tag_106\n      jump\t// in\n    tag_188:\n        /* \"#utility.yul\":5427:5452   */\n      swap2\n      pop\n        /* \"#utility.yul\":5466:5486   */\n      tag_189\n        /* \"#utility.yul\":5484:5485   */\n      dup4\n        /* \"#utility.yul\":5466:5486   */\n      tag_106\n      jump\t// in\n    tag_189:\n        /* \"#utility.yul\":5461:5486   */\n      swap3\n      pop\n        /* \"#utility.yul\":5509:5510   */\n      dup3\n        /* \"#utility.yul\":5506:5507   */\n      dup3\n        /* \"#utility.yul\":5502:5511   */\n      add\n        /* \"#utility.yul\":5495:5511   */\n      swap1\n      pop\n        /* \"#utility.yul\":5530:5533   */\n      dup1\n        /* \"#utility.yul\":5527:5528   */\n      dup3\n        /* \"#utility.yul\":5524:5534   */\n      gt\n        /* \"#utility.yul\":5521:5557   */\n      iszero\n      tag_190\n      jumpi\n        /* \"#utility.yul\":5537:5555   */\n      tag_191\n      tag_119\n      jump\t// in\n    tag_191:\n        /* \"#utility.yul\":5521:5557   */\n    tag_190:\n        /* \"#utility.yul\":5373:5564   */\n      swap3\n      swap2\n      pop\n      pop\n      jump\t// out\n        /* \"#utility.yul\":5570:5744   */\n    tag_120:\n        /* \"#utility.yul\":5710:5736   */\n      0x6368696c6c2063616e2774207769746864726177207965740000000000000000\n        /* \"#utility.yul\":5706:5707   */\n      0x00\n        /* \"#utility.yul\":5698:5704   */\n      dup3\n        /* \"#utility.yul\":5694:5708   */\n      add\n        /* \"#utility.yul\":5687:5737   */\n      mstore\n        /* \"#utility.yul\":5570:5744   */\n      pop\n      jump\t// out\n        /* \"#utility.yul\":5750:6116   */\n    tag_121:\n        /* \"#utility.yul\":5892:5895   */\n      0x00\n        /* \"#utility.yul\":5913:5980   */\n      tag_194\n        /* \"#utility.yul\":5977:5979   */\n      0x18\n        /* \"#utility.yul\":5972:5975   */\n      dup4\n        /* \"#utility.yul\":5913:5980   */\n      tag_114\n      jump\t// in\n    tag_194:\n        /* \"#utility.yul\":5906:5980   */\n      swap2\n      pop\n        /* \"#utility.yul\":5989:6082   */\n      tag_195\n        /* \"#utility.yul\":6078:6081   */\n      dup3\n        /* \"#utility.yul\":5989:6082   */\n      tag_120\n      jump\t// in\n    tag_195:\n        /* \"#utility.yul\":6107:6109   */\n      0x20\n        /* \"#utility.yul\":6102:6105   */\n      dup3\n        /* \"#utility.yul\":6098:6110   */\n      add\n        /* \"#utility.yul\":6091:6110   */\n      swap1\n      pop\n        /* \"#utility.yul\":5750:6116   */\n      swap2\n      swap1\n      pop\n      jump\t// out\n        /* \"#utility.yul\":6122:6541   */\n    tag_54:\n        /* \"#utility.yul\":6288:6292   */\n      0x00\n        /* \"#utility.yul\":6326:6328   */\n      0x20\n        /* \"#utility.yul\":6315:6324   */\n      dup3\n        /* \"#utility.yul\":6311:6329   */\n      add\n        /* \"#utility.yul\":6303:6329   */\n      swap1\n      pop\n        /* \"#utility.yul\":6375:6384   */\n      dup2\n        /* \"#utility.yul\":6369:6373   */\n      dup2\n        /* \"#utility.yul\":6365:6385   */\n      sub\n        /* \"#utility.yul\":6361:6362   */\n      0x00\n        /* \"#utility.yul\":6350:6359   */\n      dup4\n        /* \"#utility.yul\":6346:6363   */\n      add\n        /* \"#utility.yul\":6339:6386   */\n      mstore\n        /* \"#utility.yul\":6403:6534   */\n      tag_197\n        /* \"#utility.yul\":6529:6533   */\n      dup2\n        /* \"#utility.yul\":6403:6534   */\n      tag_121\n      jump\t// in\n    tag_197:\n        /* \"#utility.yul\":6395:6534   */\n      swap1\n      pop\n        /* \"#utility.yul\":6122:6541   */\n      swap2\n      swap1\n      pop\n      jump\t// out\n        /* \"#utility.yul\":6547:6741   */\n    tag_59:\n        /* \"#utility.yul\":6587:6591   */\n      0x00\n        /* \"#utility.yul\":6607:6627   */\n      tag_199\n        /* \"#utility.yul\":6625:6626   */\n      dup3\n        /* \"#utility.yul\":6607:6627   */\n      tag_106\n      jump\t// in\n    tag_199:\n        /* \"#utility.yul\":6602:6627   */\n      swap2\n      pop\n        /* \"#utility.yul\":6641:6661   */\n      tag_200\n        /* \"#utility.yul\":6659:6660   */\n      dup4\n        /* \"#utility.yul\":6641:6661   */\n      tag_106\n      jump\t// in\n    tag_200:\n        /* \"#utility.yul\":6636:6661   */\n      swap3\n      pop\n        /* \"#utility.yul\":6685:6686   */\n      dup3\n        /* \"#utility.yul\":6682:6683   */\n      dup3\n        /* \"#utility.yul\":6678:6687   */\n      sub\n        /* \"#utility.yul\":6670:6687   */\n      swap1\n      pop\n        /* \"#utility.yul\":6709:6710   */\n      dup2\n        /* \"#utility.yul\":6703:6707   */\n      dup2\n        /* \"#utility.yul\":6700:6711   */\n      gt\n        /* \"#utility.yul\":6697:6734   */\n      iszero\n      tag_201\n      jumpi\n        /* \"#utility.yul\":6714:6732   */\n      tag_202\n      tag_119\n      jump\t// in\n    tag_202:\n        /* \"#utility.yul\":6697:6734   */\n    tag_201:\n        /* \"#utility.yul\":6547:6741   */\n      swap3\n      swap2\n      pop\n      pop\n      jump\t// out\n        /* \"#utility.yul\":6747:6894   */\n    tag_122:\n        /* \"#utility.yul\":6848:6859   */\n      0x00\n        /* \"#utility.yul\":6885:6888   */\n      dup2\n        /* \"#utility.yul\":6870:6888   */\n      swap1\n      pop\n        /* \"#utility.yul\":6747:6894   */\n      swap3\n      swap2\n      pop\n      pop\n      jump\t// out\n        /* \"#utility.yul\":6900:7014   */\n    tag_123:\n      pop\n      jump\t// out\n        /* \"#utility.yul\":7020:7418   */\n    tag_124:\n        /* \"#utility.yul\":7179:7182   */\n      0x00\n        /* \"#utility.yul\":7200:7283   */\n      tag_206\n        /* \"#utility.yul\":7281:7282   */\n      0x00\n        /* \"#utility.yul\":7276:7279   */\n      dup4\n        /* \"#utility.yul\":7200:7283   */\n      tag_122\n      jump\t// in\n    tag_206:\n        /* \"#utility.yul\":7193:7283   */\n      swap2\n      pop\n        /* \"#utility.yul\":7292:7385   */\n      tag_207\n        /* \"#utility.yul\":7381:7384   */\n      dup3\n        /* \"#utility.yul\":7292:7385   */\n      tag_123\n      jump\t// in\n    tag_207:\n        /* \"#utility.yul\":7410:7411   */\n      0x00\n        /* \"#utility.yul\":7405:7408   */\n      dup3\n        /* \"#utility.yul\":7401:7412   */\n      add\n        /* \"#utility.yul\":7394:7412   */\n      swap1\n      pop\n        /* \"#utility.yul\":7020:7418   */\n      swap2\n      swap1\n      pop\n      jump\t// out\n        /* \"#utility.yul\":7424:7803   */\n    tag_61:\n        /* \"#utility.yul\":7608:7611   */\n      0x00\n        /* \"#utility.yul\":7630:7777   */\n      tag_209\n        /* \"#utility.yul\":7773:7776   */\n      dup3\n        /* \"#utility.yul\":7630:7777   */\n      tag_124\n      jump\t// in\n    tag_209:\n        /* \"#utility.yul\":7623:7777   */\n      swap2\n      pop\n        /* \"#utility.yul\":7794:7797   */\n      dup2\n        /* \"#utility.yul\":7787:7797   */\n      swap1\n      pop\n        /* \"#utility.yul\":7424:7803   */\n      swap2\n      swap1\n      pop\n      jump\t// out\n        /* \"#utility.yul\":7809:7979   */\n    tag_125:\n        /* \"#utility.yul\":7949:7971   */\n      0x736f6d657468696e672077656e742077726f6e67000000000000000000000000\n        /* \"#utility.yul\":7945:7946   */\n      0x00\n        /* \"#utility.yul\":7937:7943   */\n      dup3\n        /* \"#utility.yul\":7933:7947   */\n      add\n        /* \"#utility.yul\":7926:7972   */\n      mstore\n        /* \"#utility.yul\":7809:7979   */\n      pop\n      jump\t// out\n        /* \"#utility.yul\":7985:8351   */\n    tag_126:\n        /* \"#utility.yul\":8127:8130   */\n      0x00\n        /* \"#utility.yul\":8148:8215   */\n      tag_212\n        /* \"#utility.yul\":8212:8214   */\n      0x14\n        /* \"#utility.yul\":8207:8210   */\n      dup4\n        /* \"#utility.yul\":8148:8215   */\n      tag_114\n      jump\t// in\n    tag_212:\n        /* \"#utility.yul\":8141:8215   */\n      swap2\n      pop\n        /* \"#utility.yul\":8224:8317   */\n      tag_213\n        /* \"#utility.yul\":8313:8316   */\n      dup3\n        /* \"#utility.yul\":8224:8317   */\n      tag_125\n      jump\t// in\n    tag_213:\n        /* \"#utility.yul\":8342:8344   */\n      0x20\n        /* \"#utility.yul\":8337:8340   */\n      dup3\n        /* \"#utility.yul\":8333:8345   */\n      add\n        /* \"#utility.yul\":8326:8345   */\n      swap1\n      pop\n        /* \"#utility.yul\":7985:8351   */\n      swap2\n      swap1\n      pop\n      jump\t// out\n        /* \"#utility.yul\":8357:8776   */\n    tag_67:\n        /* \"#utility.yul\":8523:8527   */\n      0x00\n        /* \"#utility.yul\":8561:8563   */\n      0x20\n        /* \"#utility.yul\":8550:8559   */\n      dup3\n        /* \"#utility.yul\":8546:8564   */\n      add\n        /* \"#utility.yul\":8538:8564   */\n      swap1\n      pop\n        /* \"#utility.yul\":8610:8619   */\n      dup2\n        /* \"#utility.yul\":8604:8608   */\n      dup2\n        /* \"#utility.yul\":8600:8620   */\n      sub\n        /* \"#utility.yul\":8596:8597   */\n      0x00\n        /* \"#utility.yul\":8585:8594   */\n      dup4\n        /* \"#utility.yul\":8581:8598   */\n      add\n        /* \"#utility.yul\":8574:8621   */\n      mstore\n        /* \"#utility.yul\":8638:8769   */\n      tag_215\n        /* \"#utility.yul\":8764:8768   */\n      dup2\n        /* \"#utility.yul\":8638:8769   */\n      tag_126\n      jump\t// in\n    tag_215:\n        /* \"#utility.yul\":8630:8769   */\n      swap1\n      pop\n        /* \"#utility.yul\":8357:8776   */\n      swap2\n      swap1\n      pop\n      jump\t// out\n        /* \"#utility.yul\":8782:8958   */\n    tag_127:\n        /* \"#utility.yul\":8922:8950   */\n      0x796f7520646f206e6f742068617665207468652066756e647320000000000000\n        /* \"#utility.yul\":8918:8919   */\n      0x00\n        /* \"#utility.yul\":8910:8916   */\n      dup3\n        /* \"#utility.yul\":8906:8920   */\n      add\n        /* \"#utility.yul\":8899:8951   */\n      mstore\n        /* \"#utility.yul\":8782:8958   */\n      pop\n      jump\t// out\n        /* \"#utility.yul\":8964:9330   */\n    tag_128:\n        /* \"#utility.yul\":9106:9109   */\n      0x00\n        /* \"#utility.yul\":9127:9194   */\n      tag_218\n        /* \"#utility.yul\":9191:9193   */\n      0x1a\n        /* \"#utility.yul\":9186:9189   */\n      dup4\n        /* \"#utility.yul\":9127:9194   */\n      tag_114\n      jump\t// in\n    tag_218:\n        /* \"#utility.yul\":9120:9194   */\n      swap2\n      pop\n        /* \"#utility.yul\":9203:9296   */\n      tag_219\n        /* \"#utility.yul\":9292:9295   */\n      dup3\n        /* \"#utility.yul\":9203:9296   */\n      tag_127\n      jump\t// in\n    tag_219:\n        /* \"#utility.yul\":9321:9323   */\n      0x20\n        /* \"#utility.yul\":9316:9319   */\n      dup3\n        /* \"#utility.yul\":9312:9324   */\n      add\n        /* \"#utility.yul\":9305:9324   */\n      swap1\n      pop\n        /* \"#utility.yul\":8964:9330   */\n      swap2\n      swap1\n      pop\n      jump\t// out\n        /* \"#utility.yul\":9336:9755   */\n    tag_73:\n        /* \"#utility.yul\":9502:9506   */\n      0x00\n        /* \"#utility.yul\":9540:9542   */\n      0x20\n        /* \"#utility.yul\":9529:9538   */\n      dup3\n        /* \"#utility.yul\":9525:9543   */\n      add\n        /* \"#utility.yul\":9517:9543   */\n      swap1\n      pop\n        /* \"#utility.yul\":9589:9598   */\n      dup2\n        /* \"#utility.yul\":9583:9587   */\n      dup2\n        /* \"#utility.yul\":9579:9599   */\n      sub\n        /* \"#utility.yul\":9575:9576   */\n      0x00\n        /* \"#utility.yul\":9564:9573   */\n      dup4\n        /* \"#utility.yul\":9560:9577   */\n      add\n        /* \"#utility.yul\":9553:9600   */\n      mstore\n        /* \"#utility.yul\":9617:9748   */\n      tag_221\n        /* \"#utility.yul\":9743:9747   */\n      dup2\n        /* \"#utility.yul\":9617:9748   */\n      tag_128\n      jump\t// in\n    tag_221:\n        /* \"#utility.yul\":9609:9748   */\n      swap1\n      pop\n        /* \"#utility.yul\":9336:9755   */\n      swap2\n      swap1\n      pop\n      jump\t// out\n        /* \"#utility.yul\":9761:9932   */\n    tag_129:\n        /* \"#utility.yul\":9901:9924   */\n      0x20796f752068617665202073656e642076616c75650000000000000000000000\n        /* \"#utility.yul\":9897:9898   */\n      0x00\n        /* \"#utility.yul\":9889:9895   */\n      dup3\n        /* \"#utility.yul\":9885:9899   */\n      add\n        /* \"#utility.yul\":9878:9925   */\n      mstore\n        /* \"#utility.yul\":9761:9932   */\n      pop\n      jump\t// out\n        /* \"#utility.yul\":9938:10304   */\n    tag_130:\n        /* \"#utility.yul\":10080:10083   */\n      0x00\n        /* \"#utility.yul\":10101:10168   */\n      tag_224\n        /* \"#utility.yul\":10165:10167   */\n      0x15\n        /* \"#utility.yul\":10160:10163   */\n      dup4\n        /* \"#utility.yul\":10101:10168   */\n      tag_114\n      jump\t// in\n    tag_224:\n        /* \"#utility.yul\":10094:10168   */\n      swap2\n      pop\n        /* \"#utility.yul\":10177:10270   */\n      tag_225\n        /* \"#utility.yul\":10266:10269   */\n      dup3\n        /* \"#utility.yul\":10177:10270   */\n      tag_129\n      jump\t// in\n    tag_225:\n        /* \"#utility.yul\":10295:10297   */\n      0x20\n        /* \"#utility.yul\":10290:10293   */\n      dup3\n        /* \"#utility.yul\":10286:10298   */\n      add\n        /* \"#utility.yul\":10279:10298   */\n      swap1\n      pop\n        /* \"#utility.yul\":9938:10304   */\n      swap2\n      swap1\n      pop\n      jump\t// out\n        /* \"#utility.yul\":10310:10729   */\n    tag_91:\n        /* \"#utility.yul\":10476:10480   */\n      0x00\n        /* \"#utility.yul\":10514:10516   */\n      0x20\n        /* \"#utility.yul\":10503:10512   */\n      dup3\n        /* \"#utility.yul\":10499:10517   */\n      add\n        /* \"#utility.yul\":10491:10517   */\n      swap1\n      pop\n        /* \"#utility.yul\":10563:10572   */\n      dup2\n        /* \"#utility.yul\":10557:10561   */\n      dup2\n        /* \"#utility.yul\":10553:10573   */\n      sub\n        /* \"#utility.yul\":10549:10550   */\n      0x00\n        /* \"#utility.yul\":10538:10547   */\n      dup4\n        /* \"#utility.yul\":10534:10551   */\n      add\n        /* \"#utility.yul\":10527:10574   */\n      mstore\n        /* \"#utility.yul\":10591:10722   */\n      tag_227\n        /* \"#utility.yul\":10717:10721   */\n      dup2\n        /* \"#utility.yul\":10591:10722   */\n      tag_130\n      jump\t// in\n    tag_227:\n        /* \"#utility.yul\":10583:10722   */\n      swap1\n      pop\n        /* \"#utility.yul\":10310:10729   */\n      swap2\n      swap1\n      pop\n      jump\t// out\n        /* \"#utility.yul\":10735:10915   */\n    tag_131:\n        /* \"#utility.yul\":10783:10860   */\n      0x4e487b7100000000000000000000000000000000000000000000000000000000\n        /* \"#utility.yul\":10780:10781   */\n      0x00\n        /* \"#utility.yul\":10773:10861   */\n      mstore\n        /* \"#utility.yul\":10880:10884   */\n      0x12\n        /* \"#utility.yul\":10877:10878   */\n      0x04\n        /* \"#utility.yul\":10870:10885   */\n      mstore\n        /* \"#utility.yul\":10904:10908   */\n      0x24\n        /* \"#utility.yul\":10901:10902   */\n      0x00\n        /* \"#utility.yul\":10894:10909   */\n      revert\n        /* \"#utility.yul\":10921:11106   */\n    tag_100:\n        /* \"#utility.yul\":10961:10962   */\n      0x00\n        /* \"#utility.yul\":10978:10998   */\n      tag_230\n        /* \"#utility.yul\":10996:10997   */\n      dup3\n        /* \"#utility.yul\":10978:10998   */\n      tag_106\n      jump\t// in\n    tag_230:\n        /* \"#utility.yul\":10973:10998   */\n      swap2\n      pop\n        /* \"#utility.yul\":11012:11032   */\n      tag_231\n        /* \"#utility.yul\":11030:11031   */\n      dup4\n        /* \"#utility.yul\":11012:11032   */\n      tag_106\n      jump\t// in\n    tag_231:\n        /* \"#utility.yul\":11007:11032   */\n      swap3\n      pop\n        /* \"#utility.yul\":11051:11052   */\n      dup3\n        /* \"#utility.yul\":11041:11076   */\n      tag_232\n      jumpi\n        /* \"#utility.yul\":11056:11074   */\n      tag_233\n      tag_131\n      jump\t// in\n    tag_233:\n        /* \"#utility.yul\":11041:11076   */\n    tag_232:\n        /* \"#utility.yul\":11098:11099   */\n      dup3\n        /* \"#utility.yul\":11095:11096   */\n      dup3\n        /* \"#utility.yul\":11091:11100   */\n      div\n        /* \"#utility.yul\":11086:11100   */\n      swap1\n      pop\n        /* \"#utility.yul\":10921:11106   */\n      swap3\n      swap2\n      pop\n      pop\n      jump\t// out\n\n    auxdata: 0xa2646970667358221220929017e9bb933da256393e8ac00ab3d7edae7afd9c0df352974edd00f718511b64736f6c63430008180033\n}\n",
				"bytecode": {
					"linkReferences": {},
					"object": "60a060405234801562000010575f80fd5b50604051620011fe380380620011fe833981810160405281019062000036919062000112565b3373ffffffffffffffffffffffffffffffffffffffff1660808173ffffffffffffffffffffffffffffffffffffffff16815250508260025f6101000a81548160ff021916908360ff16021790555081600381905550806004819055505050506200016b565b5f80fd5b5f60ff82169050919050565b620000b6816200009f565b8114620000c1575f80fd5b50565b5f81519050620000d481620000ab565b92915050565b5f819050919050565b620000ee81620000da565b8114620000f9575f80fd5b50565b5f815190506200010c81620000e3565b92915050565b5f805f606084860312156200012c576200012b6200009b565b5b5f6200013b86828701620000c4565b93505060206200014e86828701620000fc565b92505060406200016186828701620000fc565b9150509250925092565b60805161107d620001815f395f505061107d5ff3fe60806040526004361061006f575f3560e01c80636b11ae111161004d5780636b11ae11146100db578063a694fc3a14610105578063cd11f63914610121578063fe961f611461015d5761006f565b80633ccfd60b1461007357806348c9eaaf146100895780635312ea8e146100b3575b5f80fd5b34801561007e575f80fd5b50610087610187565b005b348015610094575f80fd5b5061009d610585565b6040516100aa9190610b2d565b60405180910390f35b3480156100be575f80fd5b506100d960048036038101906100d49190610b7d565b610597565b005b3480156100e6575f80fd5b506100ef6108f9565b6040516100fc9190610bb7565b60405180910390f35b61011f600480360381019061011a9190610b7d565b61093e565b005b34801561012c575f80fd5b5061014760048036038101906101429190610c2a565b610a4a565b6040516101549190610bb7565b60405180910390f35b348015610168575f80fd5b50610171610a91565b60405161017e9190610bb7565b60405180910390f35b5f73ffffffffffffffffffffffffffffffffffffffff163373ffffffffffffffffffffffffffffffffffffffff16036101f5576040517f08c379a00000000000000000000000000000000000000000000000000000000081526004016101ec90610caf565b60405180910390fd5b5f803373ffffffffffffffffffffffffffffffffffffffff1673ffffffffffffffffffffffffffffffffffffffff1681526020019081526020015f206003015f9054906101000a900460ff16610280576040517f08c379a000000000000000000000000000000000000000000000000000000000815260040161027790610d17565b60405180910390fd5b620151805f803373ffffffffffffffffffffffffffffffffffffffff1673ffffffffffffffffffffffffffffffffffffffff1681526020019081526020015f20600101546102ce9190610d62565b5f803373ffffffffffffffffffffffffffffffffffffffff1673ffffffffffffffffffffffffffffffffffffffff1681526020019081526020015f20600201546103189190610da3565b42101561035a576040517f08c379a000000000000000000000000000000000000000000000000000000000815260040161035190610e20565b60405180910390fd5b5f805f3373ffffffffffffffffffffffffffffffffffffffff1673ffffffffffffffffffffffffffffffffffffffff1681526020019081526020015f205f01546103e25f803373ffffffffffffffffffffffffffffffffffffffff1673ffffffffffffffffffffffffffffffffffffffff1681526020019081526020015f2060010154610a97565b6103ec9190610da3565b90505f805f3373ffffffffffffffffffffffffffffffffffffffff1673ffffffffffffffffffffffffffffffffffffffff1681526020019081526020015f205f01819055505f805f3373ffffffffffffffffffffffffffffffffffffffff1673ffffffffffffffffffffffffffffffffffffffff1681526020019081526020015f206003015f6101000a81548160ff0219169083151502179055505f803373ffffffffffffffffffffffffffffffffffffffff1673ffffffffffffffffffffffffffffffffffffffff1681526020019081526020015f205f01546001546104d39190610e3e565b6001819055505f3373ffffffffffffffffffffffffffffffffffffffff16826040516104fe90610e9e565b5f6040518083038185875af1925050503d805f8114610538576040519150601f19603f3d011682016040523d82523d5f602084013e61053d565b606091505b5050905080610581576040517f08c379a000000000000000000000000000000000000000000000000000000000815260040161057890610efc565b60405180910390fd5b5050565b60025f9054906101000a900460ff1681565b5f73ffffffffffffffffffffffffffffffffffffffff163373ffffffffffffffffffffffffffffffffffffffff1603610605576040517f08c379a00000000000000000000000000000000000000000000000000000000081526004016105fc90610caf565b60405180910390fd5b805f803373ffffffffffffffffffffffffffffffffffffffff1673ffffffffffffffffffffffffffffffffffffffff1681526020019081526020015f205f01541015610686576040517f08c379a000000000000000000000000000000000000000000000000000000000815260040161067d90610f64565b60405180910390fd5b5f803373ffffffffffffffffffffffffffffffffffffffff1673ffffffffffffffffffffffffffffffffffffffff1681526020019081526020015f206003015f9054906101000a900460ff16610711576040517f08c379a000000000000000000000000000000000000000000000000000000000815260040161070890610d17565b60405180910390fd5b805f803373ffffffffffffffffffffffffffffffffffffffff1673ffffffffffffffffffffffffffffffffffffffff1681526020019081526020015f205f015461075b9190610e3e565b5f803373ffffffffffffffffffffffffffffffffffffffff1673ffffffffffffffffffffffffffffffffffffffff1681526020019081526020015f205f01819055505f805f3373ffffffffffffffffffffffffffffffffffffffff1673ffffffffffffffffffffffffffffffffffffffff1681526020019081526020015f205f015403610839575f805f3373ffffffffffffffffffffffffffffffffffffffff1673ffffffffffffffffffffffffffffffffffffffff1681526020019081526020015f206003015f6101000a81548160ff0219169083151502179055505b806001546108479190610e3e565b6001819055505f3373ffffffffffffffffffffffffffffffffffffffff168260405161087290610e9e565b5f6040518083038185875af1925050503d805f81146108ac576040519150601f19603f3d011682016040523d82523d5f602084013e6108b1565b606091505b50509050806108f5576040517f08c379a00000000000000000000000000000000000000000000000000000000081526004016108ec90610efc565b60405180910390fd5b5050565b5f805f3373ffffffffffffffffffffffffffffffffffffffff1673ffffffffffffffffffffffffffffffffffffffff1681526020019081526020015f205f0154905090565b5f73ffffffffffffffffffffffffffffffffffffffff163373ffffffffffffffffffffffffffffffffffffffff16036109ac576040517f08c379a00000000000000000000000000000000000000000000000000000000081526004016109a390610caf565b60405180910390fd5b5f34116109ee576040517f08c379a00000000000000000000000000000000000000000000000000000000081526004016109e590610fcc565b60405180910390fd5b600454341115610a33576040517f08c379a0000000000000000000000000000000000000000000000000000000008152600401610a2a90610fcc565b60405180910390fd5b34600154610a419190610da3565b60018190555050565b5f805f8373ffffffffffffffffffffffffffffffffffffffff1673ffffffffffffffffffffffffffffffffffffffff1681526020019081526020015f205f01549050919050565b60015481565b5f618e948260025f9054906101000a900460ff1660ff165f803373ffffffffffffffffffffffffffffffffffffffff1673ffffffffffffffffffffffffffffffffffffffff1681526020019081526020015f205f0154610af79190610d62565b610b019190610d62565b610b0b9190611017565b9050919050565b5f60ff82169050919050565b610b2781610b12565b82525050565b5f602082019050610b405f830184610b1e565b92915050565b5f80fd5b5f819050919050565b610b5c81610b4a565b8114610b66575f80fd5b50565b5f81359050610b7781610b53565b92915050565b5f60208284031215610b9257610b91610b46565b5b5f610b9f84828501610b69565b91505092915050565b610bb181610b4a565b82525050565b5f602082019050610bca5f830184610ba8565b92915050565b5f73ffffffffffffffffffffffffffffffffffffffff82169050919050565b5f610bf982610bd0565b9050919050565b610c0981610bef565b8114610c13575f80fd5b50565b5f81359050610c2481610c00565b92915050565b5f60208284031215610c3f57610c3e610b46565b5b5f610c4c84828501610c16565b91505092915050565b5f82825260208201905092915050565b7f7a65726f206164647265737320646574656374656400000000000000000000005f82015250565b5f610c99601583610c55565b9150610ca482610c65565b602082019050919050565b5f6020820190508181035f830152610cc681610c8d565b9050919050565b7f757365722063616e6e6f742077697468647261770000000000000000000000005f82015250565b5f610d01601483610c55565b9150610d0c82610ccd565b602082019050919050565b5f6020820190508181035f830152610d2e81610cf5565b9050919050565b7f4e487b71000000000000000000000000000000000000000000000000000000005f52601160045260245ffd5b5f610d6c82610b4a565b9150610d7783610b4a565b9250828202610d8581610b4a565b91508282048414831517610d9c57610d9b610d35565b5b5092915050565b5f610dad82610b4a565b9150610db883610b4a565b9250828201905080821115610dd057610dcf610d35565b5b92915050565b7f6368696c6c2063616e27742077697468647261772079657400000000000000005f82015250565b5f610e0a601883610c55565b9150610e1582610dd6565b602082019050919050565b5f6020820190508181035f830152610e3781610dfe565b9050919050565b5f610e4882610b4a565b9150610e5383610b4a565b9250828203905081811115610e6b57610e6a610d35565b5b92915050565b5f81905092915050565b50565b5f610e895f83610e71565b9150610e9482610e7b565b5f82019050919050565b5f610ea882610e7e565b9150819050919050565b7f736f6d657468696e672077656e742077726f6e670000000000000000000000005f82015250565b5f610ee6601483610c55565b9150610ef182610eb2565b602082019050919050565b5f6020820190508181035f830152610f1381610eda565b9050919050565b7f796f7520646f206e6f742068617665207468652066756e6473200000000000005f82015250565b5f610f4e601a83610c55565b9150610f5982610f1a565b602082019050919050565b5f6020820190508181035f830152610f7b81610f42565b9050919050565b7f20796f752068617665202073656e642076616c756500000000000000000000005f82015250565b5f610fb6601583610c55565b9150610fc182610f82565b602082019050919050565b5f6020820190508181035f830152610fe381610faa565b9050919050565b7f4e487b71000000000000000000000000000000000000000000000000000000005f52601260045260245ffd5b5f61102182610b4a565b915061102c83610b4a565b92508261103c5761103b610fea565b5b82820490509291505056fea2646970667358221220929017e9bb933da256393e8ac00ab3d7edae7afd9c0df352974edd00f718511b64736f6c63430008180033",
					"opcodes": "PUSH1 0xA0 PUSH1 0x40 MSTORE CALLVALUE DUP1 ISZERO PUSH3 0x10 JUMPI PUSH0 DUP1 REVERT JUMPDEST POP PUSH1 0x40 MLOAD PUSH3 0x11FE CODESIZE SUB DUP1 PUSH3 0x11FE DUP4 CODECOPY DUP2 DUP2 ADD PUSH1 0x40 MSTORE DUP2 ADD SWAP1 PUSH3 0x36 SWAP2 SWAP1 PUSH3 0x112 JUMP JUMPDEST CALLER PUSH20 0xFFFFFFFFFFFFFFFFFFFFFFFFFFFFFFFFFFFFFFFF AND PUSH1 0x80 DUP2 PUSH20 0xFFFFFFFFFFFFFFFFFFFFFFFFFFFFFFFFFFFFFFFF AND DUP2 MSTORE POP POP DUP3 PUSH1 0x2 PUSH0 PUSH2 0x100 EXP DUP2 SLOAD DUP2 PUSH1 0xFF MUL NOT AND SWAP1 DUP4 PUSH1 0xFF AND MUL OR SWAP1 SSTORE POP DUP2 PUSH1 0x3 DUP2 SWAP1 SSTORE POP DUP1 PUSH1 0x4 DUP2 SWAP1 SSTORE POP POP POP POP PUSH3 0x16B JUMP JUMPDEST PUSH0 DUP1 REVERT JUMPDEST PUSH0 PUSH1 0xFF DUP3 AND SWAP1 POP SWAP2 SWAP1 POP JUMP JUMPDEST PUSH3 0xB6 DUP2 PUSH3 0x9F JUMP JUMPDEST DUP2 EQ PUSH3 0xC1 JUMPI PUSH0 DUP1 REVERT JUMPDEST POP JUMP JUMPDEST PUSH0 DUP2 MLOAD SWAP1 POP PUSH3 0xD4 DUP2 PUSH3 0xAB JUMP JUMPDEST SWAP3 SWAP2 POP POP JUMP JUMPDEST PUSH0 DUP2 SWAP1 POP SWAP2 SWAP1 POP JUMP JUMPDEST PUSH3 0xEE DUP2 PUSH3 0xDA JUMP JUMPDEST DUP2 EQ PUSH3 0xF9 JUMPI PUSH0 DUP1 REVERT JUMPDEST POP JUMP JUMPDEST PUSH0 DUP2 MLOAD SWAP1 POP PUSH3 0x10C DUP2 PUSH3 0xE3 JUMP JUMPDEST SWAP3 SWAP2 POP POP JUMP JUMPDEST PUSH0 DUP1 PUSH0 PUSH1 0x60 DUP5 DUP7 SUB SLT ISZERO PUSH3 0x12C JUMPI PUSH3 0x12B PUSH3 0x9B JUMP JUMPDEST JUMPDEST PUSH0 PUSH3 0x13B DUP7 DUP3 DUP8 ADD PUSH3 0xC4 JUMP JUMPDEST SWAP4 POP POP PUSH1 0x20 PUSH3 0x14E DUP7 DUP3 DUP8 ADD PUSH3 0xFC JUMP JUMPDEST SWAP3 POP POP PUSH1 0x40 PUSH3 0x161 DUP7 DUP3 DUP8 ADD PUSH3 0xFC JUMP JUMPDEST SWAP2 POP POP SWAP3 POP SWAP3 POP SWAP3 JUMP JUMPDEST PUSH1 0x80 MLOAD PUSH2 0x107D PUSH3 0x181 PUSH0 CODECOPY PUSH0 POP POP PUSH2 0x107D PUSH0 RETURN INVALID PUSH1 0x80 PUSH1 0x40 MSTORE PUSH1 0x4 CALLDATASIZE LT PUSH2 0x6F JUMPI PUSH0 CALLDATALOAD PUSH1 0xE0 SHR DUP1 PUSH4 0x6B11AE11 GT PUSH2 0x4D JUMPI DUP1 PUSH4 0x6B11AE11 EQ PUSH2 0xDB JUMPI DUP1 PUSH4 0xA694FC3A EQ PUSH2 0x105 JUMPI DUP1 PUSH4 0xCD11F639 EQ PUSH2 0x121 JUMPI DUP1 PUSH4 0xFE961F61 EQ PUSH2 0x15D JUMPI PUSH2 0x6F JUMP JUMPDEST DUP1 PUSH4 0x3CCFD60B EQ PUSH2 0x73 JUMPI DUP1 PUSH4 0x48C9EAAF EQ PUSH2 0x89 JUMPI DUP1 PUSH4 0x5312EA8E EQ PUSH2 0xB3 JUMPI JUMPDEST PUSH0 DUP1 REVERT JUMPDEST CALLVALUE DUP1 ISZERO PUSH2 0x7E JUMPI PUSH0 DUP1 REVERT JUMPDEST POP PUSH2 0x87 PUSH2 0x187 JUMP JUMPDEST STOP JUMPDEST CALLVALUE DUP1 ISZERO PUSH2 0x94 JUMPI PUSH0 DUP1 REVERT JUMPDEST POP PUSH2 0x9D PUSH2 0x585 JUMP JUMPDEST PUSH1 0x40 MLOAD PUSH2 0xAA SWAP2 SWAP1 PUSH2 0xB2D JUMP JUMPDEST PUSH1 0x40 MLOAD DUP1 SWAP2 SUB SWAP1 RETURN JUMPDEST CALLVALUE DUP1 ISZERO PUSH2 0xBE JUMPI PUSH0 DUP1 REVERT JUMPDEST POP PUSH2 0xD9 PUSH1 0x4 DUP1 CALLDATASIZE SUB DUP2 ADD SWAP1 PUSH2 0xD4 SWAP2 SWAP1 PUSH2 0xB7D JUMP JUMPDEST PUSH2 0x597 JUMP JUMPDEST STOP JUMPDEST CALLVALUE DUP1 ISZERO PUSH2 0xE6 JUMPI PUSH0 DUP1 REVERT JUMPDEST POP PUSH2 0xEF PUSH2 0x8F9 JUMP JUMPDEST PUSH1 0x40 MLOAD PUSH2 0xFC SWAP2 SWAP1 PUSH2 0xBB7 JUMP JUMPDEST PUSH1 0x40 MLOAD DUP1 SWAP2 SUB SWAP1 RETURN JUMPDEST PUSH2 0x11F PUSH1 0x4 DUP1 CALLDATASIZE SUB DUP2 ADD SWAP1 PUSH2 0x11A SWAP2 SWAP1 PUSH2 0xB7D JUMP JUMPDEST PUSH2 0x93E JUMP JUMPDEST STOP JUMPDEST CALLVALUE DUP1 ISZERO PUSH2 0x12C JUMPI PUSH0 DUP1 REVERT JUMPDEST POP PUSH2 0x147 PUSH1 0x4 DUP1 CALLDATASIZE SUB DUP2 ADD SWAP1 PUSH2 0x142 SWAP2 SWAP1 PUSH2 0xC2A JUMP JUMPDEST PUSH2 0xA4A JUMP JUMPDEST PUSH1 0x40 MLOAD PUSH2 0x154 SWAP2 SWAP1 PUSH2 0xBB7 JUMP JUMPDEST PUSH1 0x40 MLOAD DUP1 SWAP2 SUB SWAP1 RETURN JUMPDEST CALLVALUE DUP1 ISZERO PUSH2 0x168 JUMPI PUSH0 DUP1 REVERT JUMPDEST POP PUSH2 0x171 PUSH2 0xA91 JUMP JUMPDEST PUSH1 0x40 MLOAD PUSH2 0x17E SWAP2 SWAP1 PUSH2 0xBB7 JUMP JUMPDEST PUSH1 0x40 MLOAD DUP1 SWAP2 SUB SWAP1 RETURN JUMPDEST PUSH0 PUSH20 0xFFFFFFFFFFFFFFFFFFFFFFFFFFFFFFFFFFFFFFFF AND CALLER PUSH20 0xFFFFFFFFFFFFFFFFFFFFFFFFFFFFFFFFFFFFFFFF AND SUB PUSH2 0x1F5 JUMPI PUSH1 0x40 MLOAD PUSH32 0x8C379A000000000000000000000000000000000000000000000000000000000 DUP2 MSTORE PUSH1 0x4 ADD PUSH2 0x1EC SWAP1 PUSH2 0xCAF JUMP JUMPDEST PUSH1 0x40 MLOAD DUP1 SWAP2 SUB SWAP1 REVERT JUMPDEST PUSH0 DUP1 CALLER PUSH20 0xFFFFFFFFFFFFFFFFFFFFFFFFFFFFFFFFFFFFFFFF AND PUSH20 0xFFFFFFFFFFFFFFFFFFFFFFFFFFFFFFFFFFFFFFFF AND DUP2 MSTORE PUSH1 0x20 ADD SWAP1 DUP2 MSTORE PUSH1 0x20 ADD PUSH0 KECCAK256 PUSH1 0x3 ADD PUSH0 SWAP1 SLOAD SWAP1 PUSH2 0x100 EXP SWAP1 DIV PUSH1 0xFF AND PUSH2 0x280 JUMPI PUSH1 0x40 MLOAD PUSH32 0x8C379A000000000000000000000000000000000000000000000000000000000 DUP2 MSTORE PUSH1 0x4 ADD PUSH2 0x277 SWAP1 PUSH2 0xD17 JUMP JUMPDEST PUSH1 0x40 MLOAD DUP1 SWAP2 SUB SWAP1 REVERT JUMPDEST PUSH3 0x15180 PUSH0 DUP1 CALLER PUSH20 0xFFFFFFFFFFFFFFFFFFFFFFFFFFFFFFFFFFFFFFFF AND PUSH20 0xFFFFFFFFFFFFFFFFFFFFFFFFFFFFFFFFFFFFFFFF AND DUP2 MSTORE PUSH1 0x20 ADD SWAP1 DUP2 MSTORE PUSH1 0x20 ADD PUSH0 KECCAK256 PUSH1 0x1 ADD SLOAD PUSH2 0x2CE SWAP2 SWAP1 PUSH2 0xD62 JUMP JUMPDEST PUSH0 DUP1 CALLER PUSH20 0xFFFFFFFFFFFFFFFFFFFFFFFFFFFFFFFFFFFFFFFF AND PUSH20 0xFFFFFFFFFFFFFFFFFFFFFFFFFFFFFFFFFFFFFFFF AND DUP2 MSTORE PUSH1 0x20 ADD SWAP1 DUP2 MSTORE PUSH1 0x20 ADD PUSH0 KECCAK256 PUSH1 0x2 ADD SLOAD PUSH2 0x318 SWAP2 SWAP1 PUSH2 0xDA3 JUMP JUMPDEST TIMESTAMP LT ISZERO PUSH2 0x35A JUMPI PUSH1 0x40 MLOAD PUSH32 0x8C379A000000000000000000000000000000000000000000000000000000000 DUP2 MSTORE PUSH1 0x4 ADD PUSH2 0x351 SWAP1 PUSH2 0xE20 JUMP JUMPDEST PUSH1 0x40 MLOAD DUP1 SWAP2 SUB SWAP1 REVERT JUMPDEST PUSH0 DUP1 PUSH0 CALLER PUSH20 0xFFFFFFFFFFFFFFFFFFFFFFFFFFFFFFFFFFFFFFFF AND PUSH20 0xFFFFFFFFFFFFFFFFFFFFFFFFFFFFFFFFFFFFFFFF AND DUP2 MSTORE PUSH1 0x20 ADD SWAP1 DUP2 MSTORE PUSH1 0x20 ADD PUSH0 KECCAK256 PUSH0 ADD SLOAD PUSH2 0x3E2 PUSH0 DUP1 CALLER PUSH20 0xFFFFFFFFFFFFFFFFFFFFFFFFFFFFFFFFFFFFFFFF AND PUSH20 0xFFFFFFFFFFFFFFFFFFFFFFFFFFFFFFFFFFFFFFFF AND DUP2 MSTORE PUSH1 0x20 ADD SWAP1 DUP2 MSTORE PUSH1 0x20 ADD PUSH0 KECCAK256 PUSH1 0x1 ADD SLOAD PUSH2 0xA97 JUMP JUMPDEST PUSH2 0x3EC SWAP2 SWAP1 PUSH2 0xDA3 JUMP JUMPDEST SWAP1 POP PUSH0 DUP1 PUSH0 CALLER PUSH20 0xFFFFFFFFFFFFFFFFFFFFFFFFFFFFFFFFFFFFFFFF AND PUSH20 0xFFFFFFFFFFFFFFFFFFFFFFFFFFFFFFFFFFFFFFFF AND DUP2 MSTORE PUSH1 0x20 ADD SWAP1 DUP2 MSTORE PUSH1 0x20 ADD PUSH0 KECCAK256 PUSH0 ADD DUP2 SWAP1 SSTORE POP PUSH0 DUP1 PUSH0 CALLER PUSH20 0xFFFFFFFFFFFFFFFFFFFFFFFFFFFFFFFFFFFFFFFF AND PUSH20 0xFFFFFFFFFFFFFFFFFFFFFFFFFFFFFFFFFFFFFFFF AND DUP2 MSTORE PUSH1 0x20 ADD SWAP1 DUP2 MSTORE PUSH1 0x20 ADD PUSH0 KECCAK256 PUSH1 0x3 ADD PUSH0 PUSH2 0x100 EXP DUP2 SLOAD DUP2 PUSH1 0xFF MUL NOT AND SWAP1 DUP4 ISZERO ISZERO MUL OR SWAP1 SSTORE POP PUSH0 DUP1 CALLER PUSH20 0xFFFFFFFFFFFFFFFFFFFFFFFFFFFFFFFFFFFFFFFF AND PUSH20 0xFFFFFFFFFFFFFFFFFFFFFFFFFFFFFFFFFFFFFFFF AND DUP2 MSTORE PUSH1 0x20 ADD SWAP1 DUP2 MSTORE PUSH1 0x20 ADD PUSH0 KECCAK256 PUSH0 ADD SLOAD PUSH1 0x1 SLOAD PUSH2 0x4D3 SWAP2 SWAP1 PUSH2 0xE3E JUMP JUMPDEST PUSH1 0x1 DUP2 SWAP1 SSTORE POP PUSH0 CALLER PUSH20 0xFFFFFFFFFFFFFFFFFFFFFFFFFFFFFFFFFFFFFFFF AND DUP3 PUSH1 0x40 MLOAD PUSH2 0x4FE SWAP1 PUSH2 0xE9E JUMP JUMPDEST PUSH0 PUSH1 0x40 MLOAD DUP1 DUP4 SUB DUP2 DUP6 DUP8 GAS CALL SWAP3 POP POP POP RETURNDATASIZE DUP1 PUSH0 DUP2 EQ PUSH2 0x538 JUMPI PUSH1 0x40 MLOAD SWAP2 POP PUSH1 0x1F NOT PUSH1 0x3F RETURNDATASIZE ADD AND DUP3 ADD PUSH1 0x40 MSTORE RETURNDATASIZE DUP3 MSTORE RETURNDATASIZE PUSH0 PUSH1 0x20 DUP5 ADD RETURNDATACOPY PUSH2 0x53D JUMP JUMPDEST PUSH1 0x60 SWAP2 POP JUMPDEST POP POP SWAP1 POP DUP1 PUSH2 0x581 JUMPI PUSH1 0x40 MLOAD PUSH32 0x8C379A000000000000000000000000000000000000000000000000000000000 DUP2 MSTORE PUSH1 0x4 ADD PUSH2 0x578 SWAP1 PUSH2 0xEFC JUMP JUMPDEST PUSH1 0x40 MLOAD DUP1 SWAP2 SUB SWAP1 REVERT JUMPDEST POP POP JUMP JUMPDEST PUSH1 0x2 PUSH0 SWAP1 SLOAD SWAP1 PUSH2 0x100 EXP SWAP1 DIV PUSH1 0xFF AND DUP2 JUMP JUMPDEST PUSH0 PUSH20 0xFFFFFFFFFFFFFFFFFFFFFFFFFFFFFFFFFFFFFFFF AND CALLER PUSH20 0xFFFFFFFFFFFFFFFFFFFFFFFFFFFFFFFFFFFFFFFF AND SUB PUSH2 0x605 JUMPI PUSH1 0x40 MLOAD PUSH32 0x8C379A000000000000000000000000000000000000000000000000000000000 DUP2 MSTORE PUSH1 0x4 ADD PUSH2 0x5FC SWAP1 PUSH2 0xCAF JUMP JUMPDEST PUSH1 0x40 MLOAD DUP1 SWAP2 SUB SWAP1 REVERT JUMPDEST DUP1 PUSH0 DUP1 CALLER PUSH20 0xFFFFFFFFFFFFFFFFFFFFFFFFFFFFFFFFFFFFFFFF AND PUSH20 0xFFFFFFFFFFFFFFFFFFFFFFFFFFFFFFFFFFFFFFFF AND DUP2 MSTORE PUSH1 0x20 ADD SWAP1 DUP2 MSTORE PUSH1 0x20 ADD PUSH0 KECCAK256 PUSH0 ADD SLOAD LT ISZERO PUSH2 0x686 JUMPI PUSH1 0x40 MLOAD PUSH32 0x8C379A000000000000000000000000000000000000000000000000000000000 DUP2 MSTORE PUSH1 0x4 ADD PUSH2 0x67D SWAP1 PUSH2 0xF64 JUMP JUMPDEST PUSH1 0x40 MLOAD DUP1 SWAP2 SUB SWAP1 REVERT JUMPDEST PUSH0 DUP1 CALLER PUSH20 0xFFFFFFFFFFFFFFFFFFFFFFFFFFFFFFFFFFFFFFFF AND PUSH20 0xFFFFFFFFFFFFFFFFFFFFFFFFFFFFFFFFFFFFFFFF AND DUP2 MSTORE PUSH1 0x20 ADD SWAP1 DUP2 MSTORE PUSH1 0x20 ADD PUSH0 KECCAK256 PUSH1 0x3 ADD PUSH0 SWAP1 SLOAD SWAP1 PUSH2 0x100 EXP SWAP1 DIV PUSH1 0xFF AND PUSH2 0x711 JUMPI PUSH1 0x40 MLOAD PUSH32 0x8C379A000000000000000000000000000000000000000000000000000000000 DUP2 MSTORE PUSH1 0x4 ADD PUSH2 0x708 SWAP1 PUSH2 0xD17 JUMP JUMPDEST PUSH1 0x40 MLOAD DUP1 SWAP2 SUB SWAP1 REVERT JUMPDEST DUP1 PUSH0 DUP1 CALLER PUSH20 0xFFFFFFFFFFFFFFFFFFFFFFFFFFFFFFFFFFFFFFFF AND PUSH20 0xFFFFFFFFFFFFFFFFFFFFFFFFFFFFFFFFFFFFFFFF AND DUP2 MSTORE PUSH1 0x20 ADD SWAP1 DUP2 MSTORE PUSH1 0x20 ADD PUSH0 KECCAK256 PUSH0 ADD SLOAD PUSH2 0x75B SWAP2 SWAP1 PUSH2 0xE3E JUMP JUMPDEST PUSH0 DUP1 CALLER PUSH20 0xFFFFFFFFFFFFFFFFFFFFFFFFFFFFFFFFFFFFFFFF AND PUSH20 0xFFFFFFFFFFFFFFFFFFFFFFFFFFFFFFFFFFFFFFFF AND DUP2 MSTORE PUSH1 0x20 ADD SWAP1 DUP2 MSTORE PUSH1 0x20 ADD PUSH0 KECCAK256 PUSH0 ADD DUP2 SWAP1 SSTORE POP PUSH0 DUP1 PUSH0 CALLER PUSH20 0xFFFFFFFFFFFFFFFFFFFFFFFFFFFFFFFFFFFFFFFF AND PUSH20 0xFFFFFFFFFFFFFFFFFFFFFFFFFFFFFFFFFFFFFFFF AND DUP2 MSTORE PUSH1 0x20 ADD SWAP1 DUP2 MSTORE PUSH1 0x20 ADD PUSH0 KECCAK256 PUSH0 ADD SLOAD SUB PUSH2 0x839 JUMPI PUSH0 DUP1 PUSH0 CALLER PUSH20 0xFFFFFFFFFFFFFFFFFFFFFFFFFFFFFFFFFFFFFFFF AND PUSH20 0xFFFFFFFFFFFFFFFFFFFFFFFFFFFFFFFFFFFFFFFF AND DUP2 MSTORE PUSH1 0x20 ADD SWAP1 DUP2 MSTORE PUSH1 0x20 ADD PUSH0 KECCAK256 PUSH1 0x3 ADD PUSH0 PUSH2 0x100 EXP DUP2 SLOAD DUP2 PUSH1 0xFF MUL NOT AND SWAP1 DUP4 ISZERO ISZERO MUL OR SWAP1 SSTORE POP JUMPDEST DUP1 PUSH1 0x1 SLOAD PUSH2 0x847 SWAP2 SWAP1 PUSH2 0xE3E JUMP JUMPDEST PUSH1 0x1 DUP2 SWAP1 SSTORE POP PUSH0 CALLER PUSH20 0xFFFFFFFFFFFFFFFFFFFFFFFFFFFFFFFFFFFFFFFF AND DUP3 PUSH1 0x40 MLOAD PUSH2 0x872 SWAP1 PUSH2 0xE9E JUMP JUMPDEST PUSH0 PUSH1 0x40 MLOAD DUP1 DUP4 SUB DUP2 DUP6 DUP8 GAS CALL SWAP3 POP POP POP RETURNDATASIZE DUP1 PUSH0 DUP2 EQ PUSH2 0x8AC JUMPI PUSH1 0x40 MLOAD SWAP2 POP PUSH1 0x1F NOT PUSH1 0x3F RETURNDATASIZE ADD AND DUP3 ADD PUSH1 0x40 MSTORE RETURNDATASIZE DUP3 MSTORE RETURNDATASIZE PUSH0 PUSH1 0x20 DUP5 ADD RETURNDATACOPY PUSH2 0x8B1 JUMP JUMPDEST PUSH1 0x60 SWAP2 POP JUMPDEST POP POP SWAP1 POP DUP1 PUSH2 0x8F5 JUMPI PUSH1 0x40 MLOAD PUSH32 0x8C379A000000000000000000000000000000000000000000000000000000000 DUP2 MSTORE PUSH1 0x4 ADD PUSH2 0x8EC SWAP1 PUSH2 0xEFC JUMP JUMPDEST PUSH1 0x40 MLOAD DUP1 SWAP2 SUB SWAP1 REVERT JUMPDEST POP POP JUMP JUMPDEST PUSH0 DUP1 PUSH0 CALLER PUSH20 0xFFFFFFFFFFFFFFFFFFFFFFFFFFFFFFFFFFFFFFFF AND PUSH20 0xFFFFFFFFFFFFFFFFFFFFFFFFFFFFFFFFFFFFFFFF AND DUP2 MSTORE PUSH1 0x20 ADD SWAP1 DUP2 MSTORE PUSH1 0x20 ADD PUSH0 KECCAK256 PUSH0 ADD SLOAD SWAP1 POP SWAP1 JUMP JUMPDEST PUSH0 PUSH20 0xFFFFFFFFFFFFFFFFFFFFFFFFFFFFFFFFFFFFFFFF AND CALLER PUSH20 0xFFFFFFFFFFFFFFFFFFFFFFFFFFFFFFFFFFFFFFFF AND SUB PUSH2 0x9AC JUMPI PUSH1 0x40 MLOAD PUSH32 0x8C379A000000000000000000000000000000000000000000000000000000000 DUP2 MSTORE PUSH1 0x4 ADD PUSH2 0x9A3 SWAP1 PUSH2 0xCAF JUMP JUMPDEST PUSH1 0x40 MLOAD DUP1 SWAP2 SUB SWAP1 REVERT JUMPDEST PUSH0 CALLVALUE GT PUSH2 0x9EE JUMPI PUSH1 0x40 MLOAD PUSH32 0x8C379A000000000000000000000000000000000000000000000000000000000 DUP2 MSTORE PUSH1 0x4 ADD PUSH2 0x9E5 SWAP1 PUSH2 0xFCC JUMP JUMPDEST PUSH1 0x40 MLOAD DUP1 SWAP2 SUB SWAP1 REVERT JUMPDEST PUSH1 0x4 SLOAD CALLVALUE GT ISZERO PUSH2 0xA33 JUMPI PUSH1 0x40 MLOAD PUSH32 0x8C379A000000000000000000000000000000000000000000000000000000000 DUP2 MSTORE PUSH1 0x4 ADD PUSH2 0xA2A SWAP1 PUSH2 0xFCC JUMP JUMPDEST PUSH1 0x40 MLOAD DUP1 SWAP2 SUB SWAP1 REVERT JUMPDEST CALLVALUE PUSH1 0x1 SLOAD PUSH2 0xA41 SWAP2 SWAP1 PUSH2 0xDA3 JUMP JUMPDEST PUSH1 0x1 DUP2 SWAP1 SSTORE POP POP JUMP JUMPDEST PUSH0 DUP1 PUSH0 DUP4 PUSH20 0xFFFFFFFFFFFFFFFFFFFFFFFFFFFFFFFFFFFFFFFF AND PUSH20 0xFFFFFFFFFFFFFFFFFFFFFFFFFFFFFFFFFFFFFFFF AND DUP2 MSTORE PUSH1 0x20 ADD SWAP1 DUP2 MSTORE PUSH1 0x20 ADD PUSH0 KECCAK256 PUSH0 ADD SLOAD SWAP1 POP SWAP2 SWAP1 POP JUMP JUMPDEST PUSH1 0x1 SLOAD DUP2 JUMP JUMPDEST PUSH0 PUSH2 0x8E94 DUP3 PUSH1 0x2 PUSH0 SWAP1 SLOAD SWAP1 PUSH2 0x100 EXP SWAP1 DIV PUSH1 0xFF AND PUSH1 0xFF AND PUSH0 DUP1 CALLER PUSH20 0xFFFFFFFFFFFFFFFFFFFFFFFFFFFFFFFFFFFFFFFF AND PUSH20 0xFFFFFFFFFFFFFFFFFFFFFFFFFFFFFFFFFFFFFFFF AND DUP2 MSTORE PUSH1 0x20 ADD SWAP1 DUP2 MSTORE PUSH1 0x20 ADD PUSH0 KECCAK256 PUSH0 ADD SLOAD PUSH2 0xAF7 SWAP2 SWAP1 PUSH2 0xD62 JUMP JUMPDEST PUSH2 0xB01 SWAP2 SWAP1 PUSH2 0xD62 JUMP JUMPDEST PUSH2 0xB0B SWAP2 SWAP1 PUSH2 0x1017 JUMP JUMPDEST SWAP1 POP SWAP2 SWAP1 POP JUMP JUMPDEST PUSH0 PUSH1 0xFF DUP3 AND SWAP1 POP SWAP2 SWAP1 POP JUMP JUMPDEST PUSH2 0xB27 DUP2 PUSH2 0xB12 JUMP JUMPDEST DUP3 MSTORE POP POP JUMP JUMPDEST PUSH0 PUSH1 0x20 DUP3 ADD SWAP1 POP PUSH2 0xB40 PUSH0 DUP4 ADD DUP5 PUSH2 0xB1E JUMP JUMPDEST SWAP3 SWAP2 POP POP JUMP JUMPDEST PUSH0 DUP1 REVERT JUMPDEST PUSH0 DUP2 SWAP1 POP SWAP2 SWAP1 POP JUMP JUMPDEST PUSH2 0xB5C DUP2 PUSH2 0xB4A JUMP JUMPDEST DUP2 EQ PUSH2 0xB66 JUMPI PUSH0 DUP1 REVERT JUMPDEST POP JUMP JUMPDEST PUSH0 DUP2 CALLDATALOAD SWAP1 POP PUSH2 0xB77 DUP2 PUSH2 0xB53 JUMP JUMPDEST SWAP3 SWAP2 POP POP JUMP JUMPDEST PUSH0 PUSH1 0x20 DUP3 DUP5 SUB SLT ISZERO PUSH2 0xB92 JUMPI PUSH2 0xB91 PUSH2 0xB46 JUMP JUMPDEST JUMPDEST PUSH0 PUSH2 0xB9F DUP5 DUP3 DUP6 ADD PUSH2 0xB69 JUMP JUMPDEST SWAP2 POP POP SWAP3 SWAP2 POP POP JUMP JUMPDEST PUSH2 0xBB1 DUP2 PUSH2 0xB4A JUMP JUMPDEST DUP3 MSTORE POP POP JUMP JUMPDEST PUSH0 PUSH1 0x20 DUP3 ADD SWAP1 POP PUSH2 0xBCA PUSH0 DUP4 ADD DUP5 PUSH2 0xBA8 JUMP JUMPDEST SWAP3 SWAP2 POP POP JUMP JUMPDEST PUSH0 PUSH20 0xFFFFFFFFFFFFFFFFFFFFFFFFFFFFFFFFFFFFFFFF DUP3 AND SWAP1 POP SWAP2 SWAP1 POP JUMP JUMPDEST PUSH0 PUSH2 0xBF9 DUP3 PUSH2 0xBD0 JUMP JUMPDEST SWAP1 POP SWAP2 SWAP1 POP JUMP JUMPDEST PUSH2 0xC09 DUP2 PUSH2 0xBEF JUMP JUMPDEST DUP2 EQ PUSH2 0xC13 JUMPI PUSH0 DUP1 REVERT JUMPDEST POP JUMP JUMPDEST PUSH0 DUP2 CALLDATALOAD SWAP1 POP PUSH2 0xC24 DUP2 PUSH2 0xC00 JUMP JUMPDEST SWAP3 SWAP2 POP POP JUMP JUMPDEST PUSH0 PUSH1 0x20 DUP3 DUP5 SUB SLT ISZERO PUSH2 0xC3F JUMPI PUSH2 0xC3E PUSH2 0xB46 JUMP JUMPDEST JUMPDEST PUSH0 PUSH2 0xC4C DUP5 DUP3 DUP6 ADD PUSH2 0xC16 JUMP JUMPDEST SWAP2 POP POP SWAP3 SWAP2 POP POP JUMP JUMPDEST PUSH0 DUP3 DUP3 MSTORE PUSH1 0x20 DUP3 ADD SWAP1 POP SWAP3 SWAP2 POP POP JUMP JUMPDEST PUSH32 0x7A65726F20616464726573732064657465637465640000000000000000000000 PUSH0 DUP3 ADD MSTORE POP JUMP JUMPDEST PUSH0 PUSH2 0xC99 PUSH1 0x15 DUP4 PUSH2 0xC55 JUMP JUMPDEST SWAP2 POP PUSH2 0xCA4 DUP3 PUSH2 0xC65 JUMP JUMPDEST PUSH1 0x20 DUP3 ADD SWAP1 POP SWAP2 SWAP1 POP JUMP JUMPDEST PUSH0 PUSH1 0x20 DUP3 ADD SWAP1 POP DUP2 DUP2 SUB PUSH0 DUP4 ADD MSTORE PUSH2 0xCC6 DUP2 PUSH2 0xC8D JUMP JUMPDEST SWAP1 POP SWAP2 SWAP1 POP JUMP JUMPDEST PUSH32 0x757365722063616E6E6F74207769746864726177000000000000000000000000 PUSH0 DUP3 ADD MSTORE POP JUMP JUMPDEST PUSH0 PUSH2 0xD01 PUSH1 0x14 DUP4 PUSH2 0xC55 JUMP JUMPDEST SWAP2 POP PUSH2 0xD0C DUP3 PUSH2 0xCCD JUMP JUMPDEST PUSH1 0x20 DUP3 ADD SWAP1 POP SWAP2 SWAP1 POP JUMP JUMPDEST PUSH0 PUSH1 0x20 DUP3 ADD SWAP1 POP DUP2 DUP2 SUB PUSH0 DUP4 ADD MSTORE PUSH2 0xD2E DUP2 PUSH2 0xCF5 JUMP JUMPDEST SWAP1 POP SWAP2 SWAP1 POP JUMP JUMPDEST PUSH32 0x4E487B7100000000000000000000000000000000000000000000000000000000 PUSH0 MSTORE PUSH1 0x11 PUSH1 0x4 MSTORE PUSH1 0x24 PUSH0 REVERT JUMPDEST PUSH0 PUSH2 0xD6C DUP3 PUSH2 0xB4A JUMP JUMPDEST SWAP2 POP PUSH2 0xD77 DUP4 PUSH2 0xB4A JUMP JUMPDEST SWAP3 POP DUP3 DUP3 MUL PUSH2 0xD85 DUP2 PUSH2 0xB4A JUMP JUMPDEST SWAP2 POP DUP3 DUP3 DIV DUP5 EQ DUP4 ISZERO OR PUSH2 0xD9C JUMPI PUSH2 0xD9B PUSH2 0xD35 JUMP JUMPDEST JUMPDEST POP SWAP3 SWAP2 POP POP JUMP JUMPDEST PUSH0 PUSH2 0xDAD DUP3 PUSH2 0xB4A JUMP JUMPDEST SWAP2 POP PUSH2 0xDB8 DUP4 PUSH2 0xB4A JUMP JUMPDEST SWAP3 POP DUP3 DUP3 ADD SWAP1 POP DUP1 DUP3 GT ISZERO PUSH2 0xDD0 JUMPI PUSH2 0xDCF PUSH2 0xD35 JUMP JUMPDEST JUMPDEST SWAP3 SWAP2 POP POP JUMP JUMPDEST PUSH32 0x6368696C6C2063616E2774207769746864726177207965740000000000000000 PUSH0 DUP3 ADD MSTORE POP JUMP JUMPDEST PUSH0 PUSH2 0xE0A PUSH1 0x18 DUP4 PUSH2 0xC55 JUMP JUMPDEST SWAP2 POP PUSH2 0xE15 DUP3 PUSH2 0xDD6 JUMP JUMPDEST PUSH1 0x20 DUP3 ADD SWAP1 POP SWAP2 SWAP1 POP JUMP JUMPDEST PUSH0 PUSH1 0x20 DUP3 ADD SWAP1 POP DUP2 DUP2 SUB PUSH0 DUP4 ADD MSTORE PUSH2 0xE37 DUP2 PUSH2 0xDFE JUMP JUMPDEST SWAP1 POP SWAP2 SWAP1 POP JUMP JUMPDEST PUSH0 PUSH2 0xE48 DUP3 PUSH2 0xB4A JUMP JUMPDEST SWAP2 POP PUSH2 0xE53 DUP4 PUSH2 0xB4A JUMP JUMPDEST SWAP3 POP DUP3 DUP3 SUB SWAP1 POP DUP2 DUP2 GT ISZERO PUSH2 0xE6B JUMPI PUSH2 0xE6A PUSH2 0xD35 JUMP JUMPDEST JUMPDEST SWAP3 SWAP2 POP POP JUMP JUMPDEST PUSH0 DUP2 SWAP1 POP SWAP3 SWAP2 POP POP JUMP JUMPDEST POP JUMP JUMPDEST PUSH0 PUSH2 0xE89 PUSH0 DUP4 PUSH2 0xE71 JUMP JUMPDEST SWAP2 POP PUSH2 0xE94 DUP3 PUSH2 0xE7B JUMP JUMPDEST PUSH0 DUP3 ADD SWAP1 POP SWAP2 SWAP1 POP JUMP JUMPDEST PUSH0 PUSH2 0xEA8 DUP3 PUSH2 0xE7E JUMP JUMPDEST SWAP2 POP DUP2 SWAP1 POP SWAP2 SWAP1 POP JUMP JUMPDEST PUSH32 0x736F6D657468696E672077656E742077726F6E67000000000000000000000000 PUSH0 DUP3 ADD MSTORE POP JUMP JUMPDEST PUSH0 PUSH2 0xEE6 PUSH1 0x14 DUP4 PUSH2 0xC55 JUMP JUMPDEST SWAP2 POP PUSH2 0xEF1 DUP3 PUSH2 0xEB2 JUMP JUMPDEST PUSH1 0x20 DUP3 ADD SWAP1 POP SWAP2 SWAP1 POP JUMP JUMPDEST PUSH0 PUSH1 0x20 DUP3 ADD SWAP1 POP DUP2 DUP2 SUB PUSH0 DUP4 ADD MSTORE PUSH2 0xF13 DUP2 PUSH2 0xEDA JUMP JUMPDEST SWAP1 POP SWAP2 SWAP1 POP JUMP JUMPDEST PUSH32 0x796F7520646F206E6F742068617665207468652066756E647320000000000000 PUSH0 DUP3 ADD MSTORE POP JUMP JUMPDEST PUSH0 PUSH2 0xF4E PUSH1 0x1A DUP4 PUSH2 0xC55 JUMP JUMPDEST SWAP2 POP PUSH2 0xF59 DUP3 PUSH2 0xF1A JUMP JUMPDEST PUSH1 0x20 DUP3 ADD SWAP1 POP SWAP2 SWAP1 POP JUMP JUMPDEST PUSH0 PUSH1 0x20 DUP3 ADD SWAP1 POP DUP2 DUP2 SUB PUSH0 DUP4 ADD MSTORE PUSH2 0xF7B DUP2 PUSH2 0xF42 JUMP JUMPDEST SWAP1 POP SWAP2 SWAP1 POP JUMP JUMPDEST PUSH32 0x20796F752068617665202073656E642076616C75650000000000000000000000 PUSH0 DUP3 ADD MSTORE POP JUMP JUMPDEST PUSH0 PUSH2 0xFB6 PUSH1 0x15 DUP4 PUSH2 0xC55 JUMP JUMPDEST SWAP2 POP PUSH2 0xFC1 DUP3 PUSH2 0xF82 JUMP JUMPDEST PUSH1 0x20 DUP3 ADD SWAP1 POP SWAP2 SWAP1 POP JUMP JUMPDEST PUSH0 PUSH1 0x20 DUP3 ADD SWAP1 POP DUP2 DUP2 SUB PUSH0 DUP4 ADD MSTORE PUSH2 0xFE3 DUP2 PUSH2 0xFAA JUMP JUMPDEST SWAP1 POP SWAP2 SWAP1 POP JUMP JUMPDEST PUSH32 0x4E487B7100000000000000000000000000000000000000000000000000000000 PUSH0 MSTORE PUSH1 0x12 PUSH1 0x4 MSTORE PUSH1 0x24 PUSH0 REVERT JUMPDEST PUSH0 PUSH2 0x1021 DUP3 PUSH2 0xB4A JUMP JUMPDEST SWAP2 POP PUSH2 0x102C DUP4 PUSH2 0xB4A JUMP JUMPDEST SWAP3 POP DUP3 PUSH2 0x103C JUMPI PUSH2 0x103B PUSH2 0xFEA JUMP JUMPDEST JUMPDEST DUP3 DUP3 DIV SWAP1 POP SWAP3 SWAP2 POP POP JUMP INVALID LOG2 PUSH5 0x6970667358 0x22 SLT KECCAK256 SWAP3 SWAP1 OR 0xE9 0xBB SWAP4 RETURNDATASIZE LOG2 JUMP CODECOPY RETURNDATACOPY DUP11 0xC0 EXP 0xB3 0xD7 0xED 0xAE PUSH27 0xFD9C0DF352974EDD00F718511B64736F6C63430008180033000000 "
				},
				"gasEstimates": {
					"creation": {
						"codeDepositCost": "844200",
						"executionCost": "infinite",
						"totalCost": "infinite"
					},
					"external": {
						"emergencyWithdraw(uint256)": "infinite",
						"fixedAPY()": "2489",
						"getAmountStakebyUser(address)": "2878",
						"getMyStakedAmount()": "2524",
						"stake(uint256)": "infinite",
						"totalAmountStaked()": "2491",
						"withdraw()": "infinite"
					},
					"internal": {
						"_calculateReward(uint256)": "infinite"
					}
				},
				"methodIdentifiers": {
					"emergencyWithdraw(uint256)": "5312ea8e",
					"fixedAPY()": "48c9eaaf",
					"getAmountStakebyUser(address)": "cd11f639",
					"getMyStakedAmount()": "6b11ae11",
					"stake(uint256)": "a694fc3a",
					"totalAmountStaked()": "fe961f61",
					"withdraw()": "3ccfd60b"
				}
			},
			"storageLayout": {
				"storage": [
					{
						"astId": 35,
						"contract": "contracts/stakingETH.sol:stakingEth",
						"label": "stakes",
						"offset": 0,
						"slot": "0",
						"type": "t_mapping(t_address,t_struct(userDetails)30_storage)"
					},
					{
						"astId": 37,
						"contract": "contracts/stakingETH.sol:stakingEth",
						"label": "totalAmountStaked",
						"offset": 0,
						"slot": "1",
						"type": "t_uint256"
					},
					{
						"astId": 39,
						"contract": "contracts/stakingETH.sol:stakingEth",
						"label": "fixedAPY",
						"offset": 0,
						"slot": "2",
						"type": "t_uint8"
					},
					{
						"astId": 43,
						"contract": "contracts/stakingETH.sol:stakingEth",
						"label": "durationInDays",
						"offset": 0,
						"slot": "3",
						"type": "t_uint256"
					},
					{
						"astId": 45,
						"contract": "contracts/stakingETH.sol:stakingEth",
						"label": "maxAmountStaked",
						"offset": 0,
						"slot": "4",
						"type": "t_uint256"
					}
				],
				"types": {
					"t_address": {
						"encoding": "inplace",
						"label": "address",
						"numberOfBytes": "20"
					},
					"t_bool": {
						"encoding": "inplace",
						"label": "bool",
						"numberOfBytes": "1"
					},
					"t_mapping(t_address,t_struct(userDetails)30_storage)": {
						"encoding": "mapping",
						"key": "t_address",
						"label": "mapping(address => struct stakingEth.userDetails)",
						"numberOfBytes": "32",
						"value": "t_struct(userDetails)30_storage"
					},
					"t_struct(userDetails)30_storage": {
						"encoding": "inplace",
						"label": "struct stakingEth.userDetails",
						"members": [
							{
								"astId": 23,
								"contract": "contracts/stakingETH.sol:stakingEth",
								"label": "amountStaked",
								"offset": 0,
								"slot": "0",
								"type": "t_uint256"
							},
							{
								"astId": 25,
								"contract": "contracts/stakingETH.sol:stakingEth",
								"label": "numberOfDays",
								"offset": 0,
								"slot": "1",
								"type": "t_uint256"
							},
							{
								"astId": 27,
								"contract": "contracts/stakingETH.sol:stakingEth",
								"label": "registrationTimestamp",
								"offset": 0,
								"slot": "2",
								"type": "t_uint256"
							},
							{
								"astId": 29,
								"contract": "contracts/stakingETH.sol:stakingEth",
								"label": "isvalid",
								"offset": 0,
								"slot": "3",
								"type": "t_bool"
							}
						],
						"numberOfBytes": "128"
					},
					"t_uint256": {
						"encoding": "inplace",
						"label": "uint256",
						"numberOfBytes": "32"
					},
					"t_uint8": {
						"encoding": "inplace",
						"label": "uint8",
						"numberOfBytes": "1"
					}
				}
			},
			"userdoc": {
				"kind": "user",
				"methods": {},
				"version": 1
			}
		}
	}
}